:10000000F8FF0720F90E0000F50E00008D0D00002E
:10001000F50E0000F50E0000F50E000000000000D7
:10002000000000000000000000000000F50E0000CD
:10003000F50E000000000000F50E0000B90E0000F3
:10004000F50E0000F50E0000F50E0000F50E0000A4
:10005000F50E0000F50E0000F50E0000F50E000094
:10006000F50E0000F50E0000F50E0000F50E000084
:10007000F50E0000F50E0000F50E0000F50E000074
:10008000F50E0000F50E0000F50E0000F50E000064
:10009000F50E0000F50E0000F50E0000F50E000054
:1000A000F50E0000F50E0000F50E0000F50E000044
:1000B000F50E0000F50E0000F50E0000F50E000034
:1000C000F50E0000F50E0000F50E0000F50E000024
:1000D000F50E0000F50E0000F50E0000F50E000014
:1000E000F50E0000F50E0000F50E0000F50E000004
:1000F000F50E0000F50E0000F50E0000F50E0000F4
:10010000F50E0000F50E0000F50E0000F50E0000E3
:10011000F50E0000F50E0000F50E0000F50E0000D3
:10012000F50E0000F50E0000F50E0000F50E0000C3
:10013000F50E0000F50E0000F50E0000F50E0000B3
:10014000F50E0000F50E0000F50E0000F50E0000A3
:1001500081F0004102E000BF83F0004330B54FEA78
:1001600041044FEA430594EA050F08BF90EA020FE5
:100170001FBF54EA000C55EA020C7FEA645C7FEA78
:10018000655C00F0E2804FEA5454D4EB5555B8BF9B
:100190006D420CDD2C4480EA020281EA030382EA0C
:1001A000000083EA010180EA020281EA0303362D9E
:1001B00088BF30BD11F0004F4FEA01314FF4801C71
:1001C0004CEA113102D0404261EB410113F0004F83
:1001D0004FEA03334CEA133302D0524263EB43033A
:1001E00094EA050F00F0A780A4F10104D5F1200ED8
:1001F0000DDB02FA0EFC22FA05F2801841F1000133
:1002000003FA0EF2801843FA05F359410EE0A5F106
:1002100020050EF1200E012A03FA0EFC28BF4CF037
:10022000020C43FA05F3C01851EBE37101F00045ED
:1002300007D54FF0000EDCF1000C7EEB00006EEBFA
:100240000101B1F5801F1BD3B1F5001F0CD3490884
:100250005FEA30004FEA3C0C04F101044FEA4452DB
:1002600012F5800F80F09A80BCF1004F08BF5FEA62
:10027000500C50F1000041EB045141EA050130BD42
:100280005FEA4C0C404141EB010111F4801FA4F1E5
:100290000104E9D191F0000F04BF01460020B1FA3A
:1002A00081F308BF2033A3F10B03B3F120020CDA72
:1002B0000C3208DD02F1140CC2F10C0201FA0CF050
:1002C00021FA02F10CE002F11402D8BFC2F1200CB5
:1002D00001FA02F120FA0CFCDCBF41EA0C0190406B
:1002E000E41AA2BF01EB0451294330BD6FEA0404B4
:1002F0001F3C1CDA0C340EDC04F11404C4F120029F
:1003000020FA04F001FA02F340EA030021FA04F3B0
:1003100045EA030130BDC4F10C04C4F1200220FA07
:1003200002F001FA04F340EA0300294630BD21FA45
:1003300004F0294630BD94F0000F83F4801306BF0B
:1003400081F480110134013D4EE77FEA645C18BFFF
:100350007FEA655C29D094EA050F08BF90EA020F96
:1003600005D054EA000C04BF1946104630BD91EA8E
:10037000030F1EBF0021002030BD5FEA545C05D191
:100380004000494128BF41F0004130BD14F58004D0
:100390003CBF01F5801130BD01F0004545F0FE4144
:1003A00041F470014FF0000030BD7FEA645C1ABF79
:1003B000194610467FEA655C1CBF0B46024650EAB0
:1003C000013406BF52EA033591EA030F41F40021DC
:1003D00030BD00BF90F0000F04BF0021704730B562
:1003E0004FF4806404F132044FF000054FF0000137
:1003F00050E700BF90F0000F04BF0021704730B5F8
:100400004FF4806404F1320410F0004548BF4042CC
:100410004FF000013EE700BF42004FEAE2014FEA21
:1004200031014FEA02701FBF12F07F4393F07F4FFC
:1004300081F06051704732F07F4208BF704793F0FF
:100440007F4F04BF41F40021704730B54FF4607412
:1004500001F0004521F000411CE700BF50EA010215
:1004600008BF704730B54FF000050AE050EA0102BE
:1004700008BF704730B511F0004502D5404261EB2E
:1004800041014FF4806404F132045FEA915C3FF46F
:10049000D8AE4FF003025FEADC0C18BF03325FEA0C
:1004A000DC0C18BF033202EBDC02C2F1200300FABD
:1004B00003FC20FA02F001FA03FE40EA0E0021FAE2
:1004C00002F11444BDE600BF70B54FF0FF0C4CF4D0
:1004D000E06C1CEA11541DBF1CEA135594EA0C0F82
:1004E00095EA0C0F00F0DEF82C4481EA030621EABD
:1004F0004C5123EA4C5350EA013518BF52EA0335F8
:1005000041F4801143F4801338D0A0FB02CE4FF0A9
:100510000005E1FB02E506F00042E0FB03E54FF0D9
:100520000006E1FB03569CF0000F18BF4EF0010ED1
:10053000A4F1FF04B6F5007F64F5407404D25FEACD
:100540004E0E6D4146EB060642EAC62141EA555180
:100550004FEAC52040EA5E504FEACE2EB4F1FD0CC2
:1005600088BFBCF5E06F1ED8BEF1004F08BF5FEA40
:10057000500E50F1000041EB045170BD06F00046F2
:1005800046EA010140EA020081EA0301B4EB5C049F
:10059000C2BFD4EB0C0541EA045170BD41F4801197
:1005A0004FF0000E013C00F3AB8014F1360FDEBFBC
:1005B000002001F0004170BDC4F10004203C35DA98
:1005C0000C341BDC04F11404C4F1200500FA05F31B
:1005D00020FA04F001FA05F240EA020001F00042BC
:1005E00021F0004110EBD37021FA04F642EB060132
:1005F0005EEA430E08BF20EAD37070BDC4F10C045C
:10060000C4F1200500FA04F320FA05F001FA04F21F
:1006100040EA020001F0004110EBD37041F100010B
:100620005EEA430E08BF20EAD37070BDC4F1200516
:1006300000FA05F24EEA020E20FA04F301FA05F27E
:1006400043EA020321FA04F001F0004121FA04F226
:1006500020EA020000EBD3705EEA430E08BF20EAF6
:10066000D37070BD94F0000F0FD101F00046400030
:1006700041EB010111F4801F08BF013CF7D041EAB2
:10068000060195F0000F18BF704703F000465200B6
:1006900043EB030313F4801F08BF013DF7D043EA87
:1006A0000603704794EA0C0F0CEA135518BF95EA3D
:1006B0000C0F0CD050EA410618BF52EA4306D1D1C4
:1006C00081EA030101F000414FF0000070BD50EAE3
:1006D000410606BF1046194652EA430619D094EA6D
:1006E0000C0F02D150EA013613D195EA0C0F05D157
:1006F00052EA03361CBF104619460AD181EA0301AB
:1007000001F0004141F0FE4141F470014FF0000062
:1007100070BD41F0FE4141F4780170BD70B54FF0FD
:10072000FF0C4CF4E06C1CEA11541DBF1CEA13557D
:1007300094EA0C0F95EA0C0F00F0A7F8A4EB05045F
:1007400081EA030E52EA03354FEA013100F0888056
:100750004FEA03334FF0805545EA131343EA12631F
:100760004FEA022245EA111545EA10654FEA0026D4
:100770000EF000419D4208BF964244F1FD0404F58D
:10078000407402D25B084FEA3202B61A65EB0305E9
:100790005B084FEA32024FF480104FF4002CB6EBA6
:1007A000020E75EB030E22BFB61A754640EA0C0026
:1007B0005B084FEA3202B6EB020E75EB030E22BF66
:1007C000B61A754640EA5C005B084FEA3202B6EBA7
:1007D000020E75EB030E22BFB61A754640EA9C0066
:1007E0005B084FEA3202B6EB020E75EB030E22BF36
:1007F000B61A754640EADC0055EA060E18D04FEAF4
:10080000051545EA16754FEA06164FEAC30343EA93
:1008100052734FEAC2025FEA1C1CC0D111F4801F60
:100820000BD141EA00014FF000004FF0004CB6E759
:1008300011F4801F04BF01430020B4F1FD0C88BFF8
:10084000BCF5E06F3FF6AFAEB5EB030C04BFB6EB03
:10085000020C5FEA500C50F1000041EB045170BDF6
:100860000EF0004E4EEA113114EB5C04C2BFD4EB23
:100870000C0541EA045170BD41F480114FF0000EA7
:10088000013C90E645EA060E8DE60CEA135594EA23
:100890000C0F08BF95EA0C0F3FF43BAF94EA0C0F26
:1008A0000AD150EA01347FF434AF95EA0C0F7FF49B
:1008B00025AF104619462CE795EA0C0F06D152EAEF
:1008C00003353FF4FDAE1046194622E750EA4106D3
:1008D00018BF52EA43067FF4C5AE50EA41047FF4E4
:1008E0000DAF52EA43057FF4EBAE12E74FF0FF3C49
:1008F00006E000BF4FF0010C02E000BF4FF0010C1A
:100900004DF804CD4FEA410C7FEA6C5C4FEA430C92
:1009100018BF7FEA6C5C1BD001B050EA410C0CBFE1
:1009200052EA430C91EA030F02BF90EA020F002043
:10093000704710F1000F91EA030F58BF994208BFAA
:1009400090422CBFD8176FEAE37040F00100704767
:100950004FEA410C7FEA6C5C02D150EA013C07D1BE
:100960004FEA430C7FEA6C5CD6D152EA033CD3D009
:100970005DF8040B704700BF8446104662468C4603
:100980001946634600E000BF01B5FFF7B7FF002836
:1009900048BF10F1000F01BD4DF808EDFFF7F4FF5F
:1009A0000CBF012000205DF808FB00BF4DF808EDEA
:1009B000FFF7EAFF34BF012000205DF808FB00BF0D
:1009C0004DF808EDFFF7E0FF94BF012000205DF82F
:1009D00008FB00BF4DF808EDFFF7CEFF94BF0120E4
:1009E00000205DF808FB00BF4DF808EDFFF7C4FFDD
:1009F00034BF012000205DF808FB00BF4FEA410230
:100A000012F5001215D211D56FF47873B3EB625260
:100A100012D94FEAC12343F0004343EA505311F087
:100A2000004F23FA02F018BF404270474FF0000019
:100A3000704750EA013005D111F0004008BF6FF057
:100A4000004070474FF00000704700BF4A0011D2CD
:100A500012F5001211D20DD56FF47873B3EB625218
:100A60000ED44FEAC12343F0004343EA505323FA24
:100A700002F070474FF00000704750EA013002D199
:100A80004FF0FF3070474FF00000704753B94AB93C
:100A9000002908BF00281CBF4FF0FF314FF0FF3086
:100AA00000F072B9ADF1080C6DE904CE00F006F863
:100AB000DDF804E0DDE9022304B070472DE9F047DA
:100AC000089E04468846002B4BD18A42154667D9BA
:100AD000B2FA82F24AB1C2F1200701FA02F320FA17
:100AE00007F7954047EA030894404FEA154E230C58
:100AF000B8FBFEF71FFA85FC0EFB178843EA084394
:100B000007FB0CF1994209D9EB1807F1FF3080F08F
:100B10001B81994240F21881023F2B445B1AA4B218
:100B2000B3FBFEF00EFB103344EA034400FB0CFC65
:100B3000A44509D92C1900F1FF3380F00781A445A1
:100B400040F2048102382C4440EA0740A4EB0C0434
:100B500000271EB1D4400023C6E900433946BDE852
:100B6000F0878B4209D9002E00F0EB800027C6E900
:100B7000000138463946BDE8F087B3FA83F7002F05
:100B800047D18B4202D3824200F2FA80841A61EB91
:100B9000030301209846002EE0D0C6E90048DDE7B7
:100BA00002B9FFDEB2FA82F2002A40F08F80491BC0
:100BB0004FEA154E1FFA85F80127B1FBFEFC230C06
:100BC0000EFB1C1143EA014308FB0CF1994207D9C3
:100BD000EB180CF1FF3002D2994200F2CD8084462E
:100BE000591AA3B2B1FBFEF00EFB101443EA044401
:100BF00008FB00F8A04507D92C1900F1FF3302D2F9
:100C0000A04500F2B6801846A4EB080440EA0C4068
:100C10009FE7C7F1200CBB4022FA0CFE4EEA030E00
:100C200001FA07F420FA0CF521FA0CF34FEA1E48FA
:100C30002543B3FBF8F92C0C08FB19331FFA8EFA85
:100C400044EA034309FB0AF49C4202FA07F200FA61
:100C500007F10BD91EEB030309F1FF3080F0878009
:100C60009C4240F28480A9F1020973441B1BADB27F
:100C7000B3FBF8F008FB103345EA034400FB0AFA23
:100C8000A24508D91EEB040400F1FF336BD2A24544
:100C900069D90238744440EA0940A0FB0289A4EBF8
:100CA0000A044C45C2464B4654D351D0002E69D05D
:100CB000B1EB0A0564EB030404FA0CFCFD40FC40B4
:100CC0004CEA0505C6E90054002747E7C2F12003B6
:100CD00020FA03F7954001FA02F021FA03F34FEAF4
:100CE000154E3843010CB3FBFEF71FFA85F80EFBD7
:100CF000173341EA034107FB08F38B4204FA02F47D
:100D000007D9691807F1FF3C2FD28B422DD9023F3A
:100D10002944CB1A81B2B3FBFEF00EFB103341EA3B
:100D2000034100FB08F38B4207D9691800F1FF3C2F
:100D300017D28B4215D902382944C91A40EA07470D
:100D40003BE73746304609E70746E7E61846FBE645
:100D50004145ABD2B8EB020A69EB0E0201381346EB
:100D6000A4E76046E9E7184695E76746D1E781467C
:100D70007CE702382C4447E7ACF1020C2B442FE708
:100D8000384608E73746E9E6704700BF1EF0040F13
:100D90000CBFEFF30880EFF309808169004A104728
:100DA000A50D000000B589B0036800934368019366
:100DB00083680293C36803930369049343690593AB
:100DC000836906932749C3692748079300F096FD76
:100DD000009A24492548264C00F090FD019A2149AB
:100DE000244800F08BFD029A1E49234800F086FD3E
:100DF000039A1C49214800F081FD049A19492048B2
:100E000000F07CFD059A17491E4800F077FD069A10
:100E100014491D4800F072FD079A12491B4800F062
:100E20006DFDA26A0F491A4800F068FDE26A0D499B
:100E3000184800F063FD626B0A49174800F05EFD38
:100E4000A26B0849154800F059FD6268054914482D
:100E500000F054FDEFF308820249124800F04EFD05
:100E6000FEE700BF241900003019000052190000ED
:100E700000ED00E0671900007C19000091190000E6
:100E8000A6190000BC190000E31900000E1A0000AA
:100E90003C1A0000531A00006A1A0000821A00006F
:100EA000991A0000B01A0000704708B500F014F855
:100EB000002008BDFEE7000006492DE90048D1E901
:100EC00000BC1BF101024CF10003C1E90023BDE8A5
:100ED000008800BF00000020054B44F637225A600E
:100EE00000229A6003221A60E02283F8132D7047D3
:100EF00010E000E0FEE7704708B5174A174B1849A5
:100F00008B421CD3174A184B18498B421CD3184BE1
:100F1000184A002193421CD3FFF7EDFF164B174AE6
:100F20009A60174ADA60D3F8882042F47002C3F856
:100F30008820FFF7BAFFFFF7BDFF72B6FEE752F851
:100F4000040F43F8040BDBE752F8040F43F8040BDB
:100F5000DBE743F8041BDDE71C1B0000000000106A
:100F6000000000101C1B00000000002000000020FA
:100F7000000000200800002000ED00E0000000005C
:100F80000005FA0570472DE9F74F9A46DDE9117320
:100F9000804613F002008946DDE90C549DF8386064
:100FA0000090DDE90F1B4FF0300C44D003F0030C30
:100FB000BCF1010F4FF0300E45D0D80618D5A3452F
:100FC00001D0A74244D1002C79D0102904F1FF3080
:100FD00047D1002841D0023C980673D41F2C73D807
:100FE0007821295501341F2C6ED830212955013420
:100FF000BC4204D116B913F00C0F59D07C1E1F2C23
:1010000004D8002E57D02D232B5501341646BCF1A1
:10101000000F39D025444FF0000B5C4506EB0B0266
:1010200035D1009B002B40D1104603B0BDE8F08FB6
:1010300005F804C00134A345B8D9202CF8D1B5E790
:1010400005F804E00134A742B7D9202CF8D1B4E761
:101050001029C1D01F2CD9D8C7E70446BCE75821B6
:10106000BFE70446C1E71B07D0D52023CCE73246B3
:10107000534649462020C04706F1010B5E46019BBE
:1010800033449F42F3D8C5E7A31A0193F7E75346C9
:10109000494615F8010DC0470BF1010BBDE7541C83
:1010A000534649462020C0472246BA42F7D3BBE701
:1010B0001F2F3C46AAD85907D5D52B23A4E71029C2
:1010C00093D189E71F2CCAD9A74293D09EE72DE977
:1010D000F04190B0DDF86CE0169D189F1EF4806F13
:1010E00000D095B31EF0200F4FF0000614BF4FF054
:1010F00037084FF05708B5FBF7FC07FB1C5C5FFA9D
:101100008CF4BCF1090F06F101060DF1200C94BF1F
:1011100030344444B444E4B20CF8014CB5FBF7F568
:101120000DB1202EE7D11A9C0594199CCDF818E03A
:10113000CDE903749DF85C40CDE9016408AC0094EE
:10114000FFF721FF10B0BDE8F0812E46EBE72DE957
:10115000F04F91B09946229B5B0506460F4690469C
:10116000DDE91A01DDE91E5A02D550EA010336D045
:10117000229B13F0200F4FF0000414BF4FF0370BE9
:101180004FF0570B2A465346FFF780FCD2B2092A8C
:101190008C4604F1010408A994BF30325A4421441A
:1011A000D2B201F8012C614650EA010301D0202C93
:1011B000E8D1229B0693219B0593209BCDE9035305
:1011C0009DF87030CDE9014308AB009342464B4691
:1011D00039463046FFF7D7FE11B0BDE8F08F002446
:1011E000E7E708B1FFF760BE7047000000000000AD
:1011F0002DE9F04F99469FB07D4BDDF8A0B00B91E3
:10120000002918BF034692460C930A46002599F818
:10121000000068B955452CBF0AF1FF322A465346F3
:101220000B990C9C0020A04728461FB0BDE8F08F0A
:10123000252809F1010907D06C1C2A465346DDE92F
:101240000B15A8472546E2E7002406E02D2B16D013
:10125000302B0CD144F0010491464A4612F8013B70
:101260002B2B0FD0F2D8202B0FD0232B10D0A3F193
:10127000300109292DD800230D930A2011E044F0F4
:101280000204E9E744F00404E6E744F00804E3E775
:1012900044F01004E0E70D9900FB0133303B0D935F
:1012A00091464A4612F8013BA3F130010929F2D9CF
:1012B00099F800302E2B42D199F80120A2F130018B
:1012C000092909F1010344F480642ED800260A207C
:1012D00016E02A2B0CD1DBF80030002B0BF10401B7
:1012E000BCBF5B4244F002040D938B469146DFE79E
:1012F00000230D93DCE700FB0673A3F130061346D1
:101300001A4612F8017BA7F130010929F3D9994651
:1013100099F800306C2B09F1010219D011D8682B13
:101320001FD06A2B60D04A4621E02A2A06D1DBF87A
:10133000006009F102090BF1040BE9E79946002668
:10134000E6E7742B01D07A2BEDD144F480740EE0E3
:1013500099F801306C2BF8D144F4407409F1020281
:1013600005E099F80130682B3BD044F080049146A9
:1013700019F8010B662845D000F2D580582839D1DC
:1013800044F02004692824F00C0140F0A0820C46AF
:101390001023A70540F1F9800BF1070B2BF0070B89
:1013A000DBE90001049300230593CB0F0D9A029310
:1013B00000280B4673F10001CDE906620BF1080726
:1013C0000894024602DA424263EB4303CDE900236C
:1013D000DDE90B1053462A46FFF7B9FE0546BB462A
:1013E00015E744F0C004B9E744F40074BFE700BF58
:1013F000850F000000F2888025283FF41DAF4628A5
:101400007FF41AAF0BF1070B2BF0070393ED007B72
:1014100003F1080B0022002351EC170B8DED0E7B1E
:10142000FFF7C4FA002800F0F380DDE90E23002066
:101430000021FEF791FECDE90E0101231193620513
:1014400040F1E880092E28BF09261096DDE90E013B
:10145000FFF7D4FA109ABA4B03EBC20393ED007B6B
:1014600006468DED127BFEF7C5FF02460B46DDE911
:101470000E01FEF771FEDDE91223FFF725F8CDE935
:101480001401FFF7E3FA0746FEF7A4FF02460B46F6
:10149000DDE91401FEF760FE0022AA4BCDE914013C
:1014A000FFF7A2FA002800F0B88001373846FEF7AF
:1014B00091FF02460B46DDE91201FFF781FA08B100
:1014C000013600279CA3D3E90023DDE90E01FFF7D5
:1014D0008BFA002840F06981109B002B40F0F180CE
:1014E0003046FEF787FF02460B46DDE90E01FEF7A8
:1014F00033FE0022934B07468846FFF775FA002813
:1015000000F09A800136A1E0632800F05081642841
:1015100002D062287FF490AE622824F0100440F0DC
:10152000CD81022309E0702800F0B08108D8692835
:10153000F2D06F287FF480AE082324F00C01C7E1BD
:101540007528E9D078283FF41DAF73287FF474AE76
:10155000DBF800700BF104031093B84698F80030E4
:1015600008F10102002B40F0588114F4806BA8EBC5
:10157000070802D0B04528BFB04614F002030E930E
:1015800000F05B812A46D51B5FE1E0050BF1040703
:1015900013D5DBF800200D990293CDE90361D30F39
:1015A000002A05940193B8BF5242009253462A463E
:1015B000DDE90B10FFF78BFD10E714F0400FDBF8AF
:1015C000002001D0D2B2E6E7210648BF12B2E2E71E
:1015D000E0050BF1040709D505910D99CDE901232B
:1015E000CDE90361DBF800300093DFE714F0400F32
:1015F000DBF8002008D0D2B205910D9902930023A8
:10160000CDE903610193D0E7200648BF92B2F3E72A
:10161000119014E70623109318E70022494BDDE9E7
:101620001401FFF7B9F900283FF44CAF17B1FB07DD
:101630007FF548AF013745E70022424B3846414627
:10164000FFF7AAF910B1F7073FF55CAFDDF840806E
:101650000A23B8F11F0F0ED816AA08F1010802EBF1
:10166000080196FBF3F203FB1266303601F8016CB9
:101670001646002AEDD104F00303012B16AA4FF001
:1016800030014ED00D9A904507D1119A1AB914F035
:101690000C0F00F0088108F1FF38B8F11F0F0AD8CD
:1016A000119A002A00F003811EAA42442D2102F85B
:1016B000201C08F10108002B39D12A46A8EB0506A9
:1016C0004FE04FF001080A2116ABB7FBF1F243449B
:1016D00001FB12773037B8F1200F03F8017CCAD034
:1016E00008F10103174692B916AA3021B8F1200F6C
:1016F000C1D01098804508F101030AD1109A1093C7
:101700001EA90A4411462E2201F8202C9EE7984675
:10171000DAE708F802109846E8E708F8021008F13E
:1017200001080D988045ADD2B8F11F0FF5D90026FC
:1017300028E000BFAFF300800000C0FFFFFFDF41E3
:10174000C81A00000000E03F2007B4D51EAA42449A
:101750002021ACE7571C53460B990C9D2020A8472D
:101760003A460D99B3188B42F4D31546DFE7A8EB40
:10177000060016AB18440B9910F8010C0C9F534649
:10178000B8470136B04506EB0502F0D1A10708D4F1
:1017900015463CE5541C53460B990C9D2020A84748
:1017A00022460D9B9342F5D8F2E70022F0E714F0B1
:1017B00002030E9325D02F46012653463A460B9935
:1017C0009BF800000C9CA0470E9B0BF104087D1CAD
:1017D0002BB1013EF71B0D9AEB199A4214D8C34660
:1017E00015E553463A460B990C9E2020B0470D9BB9
:1017F00005EB080708F1020608F101084345F0D897
:10180000DBE7DDF83880F2E76C1C2A4653460C9D76
:101810000B992020A8472546DDE790469EE65346D3
:101820000B990C9C2020A04743460D99994205EB4B
:10183000030203F10108F2D8A5E64346ED1AF4E7E6
:101840001E465346DDE90B14A047EA1917F8010BB1
:1018500028B1BBF1000FF4D0731E002EF0D10E9B07
:10186000154683B9DDF840B0D1E46C1C2A465346D6
:101870000C9D0B992020A84725460D9A05EB0803DF
:101880009342F2D3EEE7A8EB0208F6E7082344F010
:101890002104CDE90363102200230BF10407059412
:1018A000CDE901329EE6B8F11F0F3FF604AF66079F
:1018B0007FF54AAF1EAA42442B21F8E669284FF073
:1018C0000A033FF466AD64283FF463AD35E61023A8
:1018D00014F400723FF47CAE0D9A0891CDE90662D3
:1018E0000022CDE904320BF1070B2BF0070B02921B
:1018F0000BF10807DBE9002368E500BF0FB41FB553
:1019000006AA02A952F8043B0392009204484FF041
:10191000FF32FFF76DFC05B05DF804EB04B07047D3
:10192000E311000074726163655F737461636B003F
:101930005B25735D202D2048617264206661756CA3
:10194000742120537461636B2074726163653A0D76
:101950000A005B25735D202D205230205B307825F6
:101960003038585D0D0A005B25735D202D20523103
:10197000205B3078253038585D0D0A005B25735D9B
:10198000202D205232205B3078253038585D0D0AEA
:10199000005B25735D202D205233205B307825308D
:1019A00038585D0D0A005B25735D202D20523132C1
:1019B000205B3078253038585D0D0A005B25735D5B
:1019C000202D204C52205B5231345D205B30782535
:1019D0003038585D2063616C6C2072657475726E6E
:1019E0000D0A005B25735D202D205043205B523192
:1019F000355D205B3078253038585D2070726F6718
:101A000072616D20636F756E7465720D0A005B25DF
:101A1000735D202D20505352205B3078253038588C
:101A20005D2070726F6772616D207374617475737D
:101A30002072656769737465720D0A005B25735DBA
:101A4000202D2043465352205B3078253038585D96
:101A50000D0A005B25735D202D2048465352205B04
:101A60003078253038585D0D0A005B25735D202DD8
:101A7000204D4D464152205B3078253038585D0D61
:101A80000A005B25735D202D2042464152205B30C9
:101A900078253038585D0D0A005B25735D202D20B8
:101AA00049435352205B3078253038585D0D0A0089
:101AB0005B25735D202D204D5350205B3078253001
:101AC00038585D0D0A000000000000000000F03FE3
:101AD0000000000000002440000000000000594009
:101AE0000000000000408F40000000000088C3405C
:101AF00000000000006AF8400000000080842E41D1
:101B000000000000D01263410000000084D797411C
:081B10000000000065CDCD418D
:081B1800A4EFFF7F01000000B3
:0400000300000EF9F2
:00000001FF
