:1000000000000820B1330000AD33000035170000B8
:100010004D170000651700007D170000000000006C
:10002000000000000000000000000000AD330000F0
:10003000AD33000000000000AD330000C13200000D
:10004000E9200000AD330000AD330000AD33000007
:10005000AD330000AD330000AD330000AD33000020
:10006000AD330000AD330000AD330000AD33000010
:10007000AD330000AD330000AD330000AD33000000
:10008000AD330000AD330000AD330000AD330000F0
:10009000AD330000AD330000AD330000AD330000E0
:1000A000AD330000AD330000AD330000AD330000D0
:1000B000AD330000AD330000AD330000AD330000C0
:1000C000AD330000AD330000AD330000AD330000B0
:1000D000AD330000AD330000AD330000AD330000A0
:1000E000AD330000AD330000AD330000AD33000090
:1000F000AD330000AD330000AD330000AD33000080
:10010000AD330000AD330000AD330000AD3300006F
:10011000AD330000AD330000AD330000AD3300005F
:10012000AD330000AD330000AD330000AD3300004F
:10013000AD330000AD330000AD330000AD3300003F
:10014000AD330000AD330000AD330000AD3300002F
:1001500081F0004102E000BF83F0004330B54FEA78
:1001600041044FEA430594EA050F08BF90EA020FE5
:100170001FBF54EA000C55EA020C7FEA645C7FEA78
:10018000655C00F0E2804FEA5454D4EB5555B8BF9B
:100190006D420CDD2C4480EA020281EA030382EA0C
:1001A000000083EA010180EA020281EA0303362D9E
:1001B00088BF30BD11F0004F4FEA01314FF4801C71
:1001C0004CEA113102D0404261EB410113F0004F83
:1001D0004FEA03334CEA133302D0524263EB43033A
:1001E00094EA050F00F0A780A4F10104D5F1200ED8
:1001F0000DDB02FA0EFC22FA05F2801841F1000133
:1002000003FA0EF2801843FA05F359410EE0A5F106
:1002100020050EF1200E012A03FA0EFC28BF4CF037
:10022000020C43FA05F3C01851EBE37101F00045ED
:1002300007D54FF0000EDCF1000C7EEB00006EEBFA
:100240000101B1F5801F1BD3B1F5001F0CD3490884
:100250005FEA30004FEA3C0C04F101044FEA4452DB
:1002600012F5800F80F09A80BCF1004F08BF5FEA62
:10027000500C50F1000041EB045141EA050130BD42
:100280005FEA4C0C404141EB010111F4801FA4F1E5
:100290000104E9D191F0000F04BF01460020B1FA3A
:1002A00081F308BF2033A3F10B03B3F120020CDA72
:1002B0000C3208DD02F1140CC2F10C0201FA0CF050
:1002C00021FA02F10CE002F11402D8BFC2F1200CB5
:1002D00001FA02F120FA0CFCDCBF41EA0C0190406B
:1002E000E41AA2BF01EB0451294330BD6FEA0404B4
:1002F0001F3C1CDA0C340EDC04F11404C4F120029F
:1003000020FA04F001FA02F340EA030021FA04F3B0
:1003100045EA030130BDC4F10C04C4F1200220FA07
:1003200002F001FA04F340EA0300294630BD21FA45
:1003300004F0294630BD94F0000F83F4801306BF0B
:1003400081F480110134013D4EE77FEA645C18BFFF
:100350007FEA655C29D094EA050F08BF90EA020F96
:1003600005D054EA000C04BF1946104630BD91EA8E
:10037000030F1EBF0021002030BD5FEA545C05D191
:100380004000494128BF41F0004130BD14F58004D0
:100390003CBF01F5801130BD01F0004545F0FE4144
:1003A00041F470014FF0000030BD7FEA645C1ABF79
:1003B000194610467FEA655C1CBF0B46024650EAB0
:1003C000013406BF52EA033591EA030F41F40021DC
:1003D00030BD00BF90F0000F04BF0021704730B562
:1003E0004FF4806404F132044FF000054FF0000137
:1003F00050E700BF90F0000F04BF0021704730B5F8
:100400004FF4806404F1320410F0004548BF4042CC
:100410004FF000013EE700BF42004FEAE2014FEA21
:1004200031014FEA02701FBF12F07F4393F07F4FFC
:1004300081F06051704732F07F4208BF704793F0FF
:100440007F4F04BF41F40021704730B54FF4607412
:1004500001F0004521F000411CE700BF50EA010215
:1004600008BF704730B54FF000050AE050EA0102BE
:1004700008BF704730B511F0004502D5404261EB2E
:1004800041014FF4806404F132045FEA915C3FF46F
:10049000D8AE4FF003025FEADC0C18BF03325FEA0C
:1004A000DC0C18BF033202EBDC02C2F1200300FABD
:1004B00003FC20FA02F001FA03FE40EA0E0021FAE2
:1004C00002F11444BDE600BF70B54FF0FF0C4CF4D0
:1004D000E06C1CEA11541DBF1CEA135594EA0C0F82
:1004E00095EA0C0F00F0DEF82C4481EA030621EABD
:1004F0004C5123EA4C5350EA013518BF52EA0335F8
:1005000041F4801143F4801338D0A0FB02CE4FF0A9
:100510000005E1FB02E506F00042E0FB03E54FF0D9
:100520000006E1FB03569CF0000F18BF4EF0010ED1
:10053000A4F1FF04B6F5007F64F5407404D25FEACD
:100540004E0E6D4146EB060642EAC62141EA555180
:100550004FEAC52040EA5E504FEACE2EB4F1FD0CC2
:1005600088BFBCF5E06F1ED8BEF1004F08BF5FEA40
:10057000500E50F1000041EB045170BD06F00046F2
:1005800046EA010140EA020081EA0301B4EB5C049F
:10059000C2BFD4EB0C0541EA045170BD41F4801197
:1005A0004FF0000E013C00F3AB8014F1360FDEBFBC
:1005B000002001F0004170BDC4F10004203C35DA98
:1005C0000C341BDC04F11404C4F1200500FA05F31B
:1005D00020FA04F001FA05F240EA020001F00042BC
:1005E00021F0004110EBD37021FA04F642EB060132
:1005F0005EEA430E08BF20EAD37070BDC4F10C045C
:10060000C4F1200500FA04F320FA05F001FA04F21F
:1006100040EA020001F0004110EBD37041F100010B
:100620005EEA430E08BF20EAD37070BDC4F1200516
:1006300000FA05F24EEA020E20FA04F301FA05F27E
:1006400043EA020321FA04F001F0004121FA04F226
:1006500020EA020000EBD3705EEA430E08BF20EAF6
:10066000D37070BD94F0000F0FD101F00046400030
:1006700041EB010111F4801F08BF013CF7D041EAB2
:10068000060195F0000F18BF704703F000465200B6
:1006900043EB030313F4801F08BF013DF7D043EA87
:1006A0000603704794EA0C0F0CEA135518BF95EA3D
:1006B0000C0F0CD050EA410618BF52EA4306D1D1C4
:1006C00081EA030101F000414FF0000070BD50EAE3
:1006D000410606BF1046194652EA430619D094EA6D
:1006E0000C0F02D150EA013613D195EA0C0F05D157
:1006F00052EA03361CBF104619460AD181EA0301AB
:1007000001F0004141F0FE4141F470014FF0000062
:1007100070BD41F0FE4141F4780170BD70B54FF0FD
:10072000FF0C4CF4E06C1CEA11541DBF1CEA13557D
:1007300094EA0C0F95EA0C0F00F0A7F8A4EB05045F
:1007400081EA030E52EA03354FEA013100F0888056
:100750004FEA03334FF0805545EA131343EA12631F
:100760004FEA022245EA111545EA10654FEA0026D4
:100770000EF000419D4208BF964244F1FD0404F58D
:10078000407402D25B084FEA3202B61A65EB0305E9
:100790005B084FEA32024FF480104FF4002CB6EBA6
:1007A000020E75EB030E22BFB61A754640EA0C0026
:1007B0005B084FEA3202B6EB020E75EB030E22BF66
:1007C000B61A754640EA5C005B084FEA3202B6EBA7
:1007D000020E75EB030E22BFB61A754640EA9C0066
:1007E0005B084FEA3202B6EB020E75EB030E22BF36
:1007F000B61A754640EADC0055EA060E18D04FEAF4
:10080000051545EA16754FEA06164FEAC30343EA93
:1008100052734FEAC2025FEA1C1CC0D111F4801F60
:100820000BD141EA00014FF000004FF0004CB6E759
:1008300011F4801F04BF01430020B4F1FD0C88BFF8
:10084000BCF5E06F3FF6AFAEB5EB030C04BFB6EB03
:10085000020C5FEA500C50F1000041EB045170BDF6
:100860000EF0004E4EEA113114EB5C04C2BFD4EB23
:100870000C0541EA045170BD41F480114FF0000EA7
:10088000013C90E645EA060E8DE60CEA135594EA23
:100890000C0F08BF95EA0C0F3FF43BAF94EA0C0F26
:1008A0000AD150EA01347FF434AF95EA0C0F7FF49B
:1008B00025AF104619462CE795EA0C0F06D152EAEF
:1008C00003353FF4FDAE1046194622E750EA4106D3
:1008D00018BF52EA43067FF4C5AE50EA41047FF4E4
:1008E0000DAF52EA43057FF4EBAE12E74FF0FF3C49
:1008F00006E000BF4FF0010C02E000BF4FF0010C1A
:100900004DF804CD4FEA410C7FEA6C5C4FEA430C92
:1009100018BF7FEA6C5C1BD001B050EA410C0CBFE1
:1009200052EA430C91EA030F02BF90EA020F002043
:10093000704710F1000F91EA030F58BF994208BFAA
:1009400090422CBFD8176FEAE37040F00100704767
:100950004FEA410C7FEA6C5C02D150EA013C07D1BE
:100960004FEA430C7FEA6C5CD6D152EA033CD3D009
:100970005DF8040B704700BF8446104662468C4603
:100980001946634600E000BF01B5FFF7B7FF002836
:1009900048BF10F1000F01BD4DF808EDFFF7F4FF5F
:1009A0000CBF012000205DF808FB00BF4DF808EDEA
:1009B000FFF7EAFF34BF012000205DF808FB00BF0D
:1009C0004DF808EDFFF7E0FF94BF012000205DF82F
:1009D00008FB00BF4DF808EDFFF7CEFF94BF0120E4
:1009E00000205DF808FB00BF4DF808EDFFF7C4FFDD
:1009F00034BF012000205DF808FB00BF4FEA410230
:100A000012F5001215D211D56FF47873B3EB625260
:100A100012D94FEAC12343F0004343EA505311F087
:100A2000004F23FA02F018BF404270474FF0000019
:100A3000704750EA013005D111F0004008BF6FF057
:100A4000004070474FF00000704700BF4A0011D2CD
:100A500012F5001211D20DD56FF47873B3EB625218
:100A60000ED44FEAC12343F0004343EA505323FA24
:100A700002F070474FF00000704750EA013002D199
:100A80004FF0FF3070474FF00000704753B94AB93C
:100A9000002908BF00281CBF4FF0FF314FF0FF3086
:100AA00000F074B9ADF1080C6DE904CE00F006F861
:100AB000DDF804E0DDE9022304B070472DE9F047DA
:100AC000089E04468846002B40F085808A421546E1
:100AD00048D9B2FA82F24AB1C2F1200701FA02F310
:100AE00020FA07F7954047EA030894404FEA154E6D
:100AF000230CB8FBFEF71FFA85FC0EFB178843EAB0
:100B0000084307FB0CF1994209D9EB1807F1FF30B4
:100B100080F0E380994240F2E080023F2B445B1A70
:100B2000A4B2B3FBFEF00EFB103344EA034400FB17
:100B30000CFCA44509D92C1900F1FF3380F0CB80BF
:100B4000A44540F2C88002382C4440EA0740A4EB98
:100B50000C0400271EB1D4400023C6E900433946E7
:100B6000BDE8F087002A53D0B2FA82F2002A40F0A2
:100B7000B680491B4FEA154E1FFA85F80127B1FBD5
:100B8000FEFC230C0EFB1C1143EA014308FB0CF195
:100B9000994207D9EB180CF1FF3002D2994200F2CA
:100BA000EC808446591AA3B2B1FBFEF00EFB101480
:100BB00043EA044408FB00F8A04507D92C1900F1CA
:100BC000FF3302D2A04500F2DC801846A4EB0804F3
:100BD00040EA0C40BEE78B4208D9002E78D00027AF
:100BE000C6E9000138463946BDE8F087B3FA83F715
:100BF0007FB98B4202D3824200F2BD80841A61EB3E
:100C0000030301209846002EA9D0C6E90048A6E7B4
:100C1000FFDEC7F12005BB4022FA05FC4CEA030CBD
:100C200001FA07F420FA05F821FA05F34FEA1C4E01
:100C300048EA0404B3FBFEF9210C0EFB19331FFA3A
:100C40008CF841EA034309FB08FA9A4502FA07F2D5
:100C500000FA07F10BD91CEB030309F1FF3080F018
:100C600088809A4540F28580A9F102096344A3EB8C
:100C70000A03A4B2B3FBFEF00EFB103344EA0344B4
:100C800000FB08F8A04508D91CEB040400F1FF3371
:100C90006BD2A04569D90238644440EA0940A4EB0C
:100CA0000804A0FB02894C45C6464B4654D351D09C
:100CB000002E69D0B1EB0E0264EB030404FA05F5D3
:100CC00022FA07F3FC401D43C6E90054002746E71B
:100CD0003746304643E7184637E707461FE7C2F175
:100CE000200320FA03F7954001FA02F021FA03F3FA
:100CF0004FEA154E3843010CB3FBFEF71FFA85F897
:100D00000EFB173341EA034107FB08F38B4204FA59
:100D100002F407D9691807F1FF3C28D28B4226D983
:100D2000023F2944CB1A81B2B3FBFEF00EFB103315
:100D300041EA034100FB08F38B4207D9691800F12F
:100D4000FF3C10D28B420ED902382944C91A40EA1E
:100D5000074714E74145ABD2B8EB020E69EB0C0232
:100D600001381346A4E76046F0E7184695E7674662
:100D7000D8E781467BE7384645E7ACF1020C2B44C7
:100D800010E702382C4421E73746E8E6704700BFF9
:100D90009D49D1F890309B0430B510D54B6C4A6C0E
:100DA000C3F30B43C2F30B0201320133B3FBF2F383
:100DB0000A6C02F01802082A1FD013D8D2B1934B44
:100DC00091491868924B1860D1F89420914B02F029
:100DD0000702013A062A1CD8DFE802F01619787AD1
:100DE0007D818300102A0CD0182AE8D18A4B00227A
:100DF0001A60E4E7894A534300E0DB03864A136044
:100E0000DDE7874A1268F6E7834A126800E0834A02
:100E10001A601C68D1F80031824AC3F304230133FD
:100E2000B4FBF3F31360D1F8002102F04072B2F189
:100E3000807F58D0B2F1007F57D012B95A087A4952
:100E40000A60714A794DD2F80411C1F308210131C9
:100E5000B3FBF1F12960D2F80811754DC1F30821F7
:100E60000131B3FBF1F12960D2F81411714DC1F3D6
:100E700004210131B3FBF1F12960D2F80C116E4D60
:100E8000C1F308210131B3FBF1F12960D2F8181147
:100E90006A4DC1F308210131B3FBF1F12960D2F8A9
:100EA0001C11674DC1F308210131B3FBF1F1296039
:100EB000D2F86011634D01F0030102291AD0032911
:100EC00027D0012913D05449096811E05E4A9CE7F4
:100ED0004FF400429CE7504A1268520898E7504A83
:100EE00093E7002294E79A08A9E7DA08A7E74B49B5
:100EF000296000E02860D2F86421544902F003021E
:100F0000022A0BD0032A16D0012A04D0424A1268C2
:100F100002E04349D8E7414A0A6000E008603A4AE3
:100F2000D2F8F01101F00701052914D8DFE801F02B
:100F300005090C5254583A4AE9E7394A1168444ABB
:100F400008E0434A354905E0526A12F0080F404A6A
:100F5000F8D0404911602C4A126F02F00302012AB6
:100F600046D0002A3ED0022A3FD027493A4AD1F83B
:100F70005C3103F03003102B43D03CD8002B74D0ED
:100F8000D1F85C31156803F003030133B5FBF3F3CB
:100F90001360D1F85C31314A03F44013B3F5801F7C
:100FA0006DD064D8002B6DD0174B1068D3F85C114E
:100FB000C1F301410131B0FBF1F11160D3F88010B0
:100FC000274A01F00701042960D8DFE801F05D93AA
:100FD000965F9900104AB1E71D4A4FF40041B9E706
:100FE000194AABE71F4B1860BFE70B4B1B685B0848
:100FF0001C4A1360B9E7202B36D0302BC0D11460C7
:10100000BEE71060BCE700BF00400E4000000020BB
:10101000E8000020CC0000200400002000127A002C
:1010200010000020F4000020A4000020D0000020C8
:10103000B8000020DC000020EC000020E0000020D0
:10104000D8000020F000002008000020D40000207C
:10105000980000200024F400B0000020BC00002014
:10106000A000002008010020594B136088E7B3F569
:10107000001F06D0B3F5401F96D1146094E71060AE
:1010800092E7534B13608FE700211160D3F82011D2
:1010900012685048C1F3012102FA01F10160D3F84E
:1010A00020114D48C1F3034102FA01F10160D3F868
:1010B00020114A48C1F3023102FA01F10160D3F86C
:1010C0002011474801F00F0102FA01F10160D3F845
:1010D0002011C1F303118A4042490A60D3F88420E9
:1010E000414B02F00702042A0ED8DFE802F00B3A67
:1010F0003D4042003D490968C7E74FF40041C4E75D
:101100003B49F8E700221A601A683A4B3A48D3F88C
:10111000281101F0030102FA01F10160D3F828114E
:101120003648C1F3011102FA01F10160D3F8281128
:101130003348C1F3032102FA01F10160D3F8281109
:10114000C1F3013104318A402E490A60D3F88C2062
:1011500002F00702042A11D8DFE802F00D1C20106B
:101160002400224A1268CEE74FF40042CBE7264A19
:10117000F8E71F4AF6E7254A00211160D3F88820D6
:10118000234B02F00702042A10D8DFE802F00D1901
:101190001C0F1F00154A11681C4AEEE71B4A4FF44A
:1011A0000041EAE7124AF6E700221A60114A1B687A
:1011B000D2F8302102F003029340164A136030BD8A
:1011C0000A4A1268F1E74FF40042EEE7084AF8E7EE
:1011D00000127A00F8000020FC000020000100202E
:1011E00094000020AC000020B40000200800002083
:1011F0000C00002000400E4004010020C40000202C
:10120000A80000209C000020A4000020E400002092
:10121000C8000020C0000020054B9842054B1A680A
:1012200094BF22F4803242F480321A60704700BFCB
:101230000048E80100400E40084BD3F89020D2044B
:101240000AD4D3F84021D201FBD41861D3F840214D
:10125000D201FBD4024B1960704700BF00400E4022
:10126000040000205F4B70B5D3F89050D3F8602194
:1012700002F00302012A03D0D3F86021940706D1BB
:101280008122C3F86021D3F890209003FBD4554B02
:10129000D3F89060D3F8642102F00302012A03D04E
:1012A000D3F86421910706D18122C3F86421D3F8D1
:1012B00090205203FBD44B4AD2F89030DC0406D580
:1012C0004FF400531366D2F89030D804FBD4D2F810
:1012D000903013F0040F434B05D008211166D3F86A
:1012E00090205107FBD410225A624FF400529A62A8
:1012F0001A6B42F000621A6347F28C025A630422AE
:101300001A66384B1C46D3F890201207FBD50222F0
:101310005A67D4F8943003F00703022BF9D1324B0B
:101320003249D3F8C00040F00060FFF785FF062384
:1013300023642F4B63644FF480532366294CD4F805
:1013400090309804FBD52B48FFF766FF274800F044
:1013500013FC00234FF48072C4F80031C4F8042158
:10136000C4F80831C4F80C21C4F81431C4F8183199
:101370000123C4F81C2163671A4BD3F8942002F0B0
:101380000702012AF9D1D3F8602102F00302012AF1
:101390000ED1D3F8602122F08002C3F86021114BF6
:1013A00005F40035D3F89020910301D4002DF9D134
:1013B0000C4BD3F8642102F00302012A0DD1D3F8BB
:1013C000642122F08002C3F8642106F48026D3F859
:1013D0009020520301D4002EF9D1024B0422C3F80D
:1013E000882070BD00400E40B081E00F00A24A048A
:1013F0006300830300512502134B10B5D3F8F44169
:10140000E40707D438B94FF400621A66D3F8902085
:101410005405FBD410BDD3F840014000FBD49960C3
:10142000094B1946D3F840014400FBD4D3F890008F
:10143000400506D44FF480601866D1F890301B0543
:10144000FBD5024B1A60E5E700400E40100000207B
:101450000F4B30B920221A66D3F89020D206FBD465
:101460007047D3F840018001FBD49961D3F8401153
:101470008801FBD4D3F89010C90606D41021196650
:101480000349D1F890309B06FBD5024B1A60704798
:1014900000400E4000000020084AD2F890305B0760
:1014A0000AD4D36A1B0DC0F30A001B05034304488A
:1014B00000EAC1200343D362704700BF00400E40E2
:1014C00000F80F00074AD36AD26A4FF42071D2B2F3
:1014D000C3F3412301FB03235B0000EE103AB8EE97
:1014E000C00A704700400E40074B9FED087ADB6A48
:1014F0009FED070AC3F3C82307EE903AF8EEE77AA8
:10150000A7EE870A704700BF00400E403108AC3D8F
:1015100033330B41084AD2F890305B070AD4136B7F
:101520001B0DC0F30A001B050343044800EAC12059
:1015300003431363704700BF00400E4000F80F00E4
:10154000074A136B126B4FF42071D2B2C3F34123DD
:1015500001FB03235B0000EE103AB8EEC00A7047AF
:1015600000400E40074B9FED087A1B6B9FED070A6A
:10157000C3F3C82307EE903AF8EEE77AA7EE870A9E
:10158000704700BF00400E403108AC3D33330B4183
:10159000094AD2F8903013F004030BD028B110237D
:1015A0005366D2F890305B02FBD5D2F89C00C0F3B2
:1015B0000A0070471846704700400E400E4BD3F8A3
:1015C00090305B0710B5044612D5FFF7E1FF0146E6
:1015D0002046FFF7DDFF4FF42073C1F34121C0B275
:1015E00003FB0101490007EE901AB8EEE70A10BDAF
:1015F0009FED020AFBE700BF00400E400000000024
:10160000054BD3F8900010F004001CBFD3F89C00E9
:10161000C0F30A40704700BF00400E4008B50D4BB4
:10162000D3F890305B0711D5FFF7EAFF0246FFF7CA
:10163000E7FF4FF42073C2F34122C0B203FB020262
:10164000520007EE902AB8EEE70A08BD9FED020AA5
:10165000FBE700BF00400E4000000000074AD2F840
:10166000B03043F48073C2F8B030054B40F20162F1
:101670001A604FF0FF329A60704700BF00400E4082
:1016800000C00140024B02221A67FFF781BB00BF76
:1016900000400E40114AD36843F08073D360104A73
:1016A0000223C2F8F0300F4B1B68B3FBF1F14FF48B
:1016B000807301391161C2F804330B4B0B4A1A6075
:1016C0004FF060434FF00112C3F8802E084AC3F870
:1016D000B02FC3F8400EC3F8000E7047F0ED00E0E5
:1016E000000004E008010020001000E0FE030040BC
:1016F00055CEACC54FF0604310B5D3F8802ED2075D
:101700000AD5D3F8004E01228A40224204D01A782A
:10171000002AFCD003F8210010BD0021FFF7EABF2A
:10172000034AD2F8B03043F00203C2F8B030704739
:1017300000400E401EF0040F0CBFEFF30880EFF3E3
:1017400009808169004A1047951700001EF0040FB8
:101750000CBFEFF30880EFF309808169004A10475E
:10176000791800001EF0040F0CBFEFF30880EFF3B0
:1017700009808169004A10476D1900001EF0040FAE
:101780000CBFEFF30880EFF309808169004A10472E
:101790006D1A000000B589B0036800934368019397
:1017A00083680293C36803930369049343690593B1
:1017B000836906932149C3692148079302F07EFC9F
:1017C000009A1E491F48204C02F078FC019A1B49E0
:1017D0001E4802F073FC029A18491D4802F06EFC84
:1017E000039A16491B4802F069FC049A13491A48E7
:1017F00002F064FC059A1149184802F05FFC069A51
:101800000E49174802F05AFC079A0C49154802F095
:1018100055FC0A49144802F051FCE26A0749134892
:1018200002F04CFC62680549114802F047FCEFF3F6
:10183000088202490F4802F041FCFEE734430000F1
:10184000DB430000FD43000000ED00E01244000017
:10185000274400003C44000051440000674400005D
:101860008E440000B9440000E74400000F4500002A
:10187000264500003D45000000B589B0036800938F
:101880004368019383680293C368039303690493D5
:1018900043690593836906932449C36924480793E0
:1018A00002F00CFC009A21492248234C02F006FC6D
:1018B000019A1E49214802F001FC029A1B49204866
:1018C00002F0FCFB039A19491E4802F0F7FB049A48
:1018D00016491D4802F0F2FB059A14491B4802F014
:1018E000EDFB069A11491A4802F0E8FB079A0F49E6
:1018F000184802F0E3FB0D49174802F0DFFBA26A2B
:101900000A491648D2B202F0D9FB626B0749144863
:1019100002F0D4FB62680549124802F0CFFBEFF3F6
:1019200008820249104802F0C9FBFEE74A43000062
:1019300053450000FD43000000ED00E012440000AC
:10194000274400003C44000051440000674400006C
:101950008E440000B9440000E744000082450000C6
:101960009A450000264500003D45000000B589B0BD
:10197000036800934368019383680293C3680393E9
:101980000369049343690593836906932749C369EF
:101990002748079302F092FB009A24492548264CD9
:1019A00002F08CFB019A2149244802F087FB029A3D
:1019B0001E49234802F082FB039A1C49214802F089
:1019C0007DFB049A1949204802F078FB059A1749D3
:1019D0001E4802F073FB069A14491D4802F06EFB84
:1019E000079A12491B4802F069FB10491A4802F095
:1019F00065FBA26A0D491948C2F3072202F05EFB9B
:101A0000A26B0A49164802F059FB6268074915485B
:101A100002F054FBEFF308820449134802F04EFB36
:101A20004FF0804301225A64FEE700BF604300008C
:101A30008C430000FD43000000ED00E01244000074
:101A4000274400003C44000051440000674400006B
:101A50008E440000B9440000E7440000AD4300009C
:101A6000C4430000264500003D45000000B589B094
:101A7000036800934368019383680293C3680393E8
:101A80000369049343690593836906932249C369F3
:101A90002248079302F012FB009A1F492048214C6C
:101AA00002F00CFB019A1C491F4802F007FB029A46
:101AB00019491E4802F002FB039A17491C4802F01C
:101AC000FDFA049A14491B4802F0F8FA059A1249E3
:101AD000194802F0F3FA069A0F49184802F0EEFA94
:101AE000079A0D49164802F0E9FA0B49154802F029
:101AF000E5FAA26A08491448C2F3CF3202F0DEFACE
:101B000062680549114802F0D9FAEFF308820249E8
:101B10000F4802F0D3FAFEE775430000B24500001B
:101B2000FD43000000ED00E01244000027440000E7
:101B30003C44000051440000674400008E44000013
:101B4000B9440000E7440000D545000026450000E8
:101B50003D4500004FF080431A6842F00B021A60C6
:101B60000222C3F890205A6842F080525A60202224
:101B70009A6001225A647047214B98424FF080438B
:101B800015D85A6822F040725A604FF080421368AC
:101B900023F4805313601B4B984228D94FF08042A6
:101BA000D2F8003143F0061343F4C06325E0164A2F
:101BB000904205D85A6822F0407242F08072E3E702
:101BC000124A90425A680ED822F0407242F00072D7
:101BD0005A600F4B9842D8D94FF08042136843F4B3
:101BE00080531360DAE742F040725A60F4E7D2F8AB
:101BF000003123F0061323F4C063C2F800317047AC
:101C000080A8120180D543020051250280F93703D4
:101C100080F0FA02F7B5594D9DF828609DF83040E4
:101C20002F68002FFCDAEFF3108772B6D5F800E0CA
:101C30002EF0810EC5F800E0D5F800E04EF0010E60
:101C4000C5F800E09DF82050002B4FEAC51545EA85
:101C5000006514BF4FF48020002005434748C0F8BA
:101C6000905052B1D0F89030013A43EA024343F425
:101C70000023C0F89030C0F89410B6B10023CDE92D
:101C800000333E49D1F89020701E42EA003242F4FF
:101C90000042C1F89020DAB296423CD8374B009A05
:101CA000C3F8A820019AC3F8AC20BCB1334BD3F8D9
:101CB000902042F40002C3F89020082CD3F8902022
:101CC00085BFA4F1090142EA015204F1FF3142F05B
:101CD000040298BF42EA0152C3F89020274BD3F880
:101CE000902042F00102C3F89020D3F89020900792
:101CF000FBD4002C3DD1214B1A68002AFCDA1A686B
:101D000022F001021A601A6842F081021A6007B9D3
:101D100062B603B0F0BD099AD25C0DF8032001331E
:101D2000B9E70005C3F88C00D3F88C1041F001012D
:101D3000C3F88C10D3F88C108907FBD4D3F88C101F
:101D4000090A02F8011BA91A082CC9B202D9601AA3
:101D50000728E6DDD3F8A0000090D3F8A430019363
:101D60000023D8B28142C6D91DF80300D0540133F4
:101D7000F7E70B9A014B1519E5E700BF00C40140D6
:101D8000F0B4042A9DF81060059F9DF81840DDF816
:101D90001CC09DF8205013D81F2E11D8082C0FD826
:101DA00004B16FB1102D0BD815B1BCF1000F07D0E5
:101DB000CDE907C5CDE905740496F0BCFFF72ABF4D
:101DC000F0BC704710B586B0002423462246214659
:101DD000CDE90344CDE9014400946620FFF71AFFE2
:101DE000CDE90344CDE9014400942346224621462F
:101DF0009920FFF70FFF06B010BD00B589B0012391
:101E000004930DF11F0303930023CDE901330093E5
:101E10001A4619460520FFF7FDFE9DF81F0009B080
:101E20005DF804FB00B589B0012304930DF11F0395
:101E300003930023CDE9013300931A461946352058
:101E4000FFF7E8FE9DF81F0009B05DF804FB7FB5C1
:101E50000023CDE90333CDE9013300931A46194637
:101E60000620FFF7D7FEFFF7C8FF830702D507B0AC
:101E70005DF804FB0120002101F046FAF3E700B50C
:101E800089B08DF81C008DF81D10FFF7E0FF0222CD
:101E90000023029207AACDE90032CDE903331A46A6
:101EA00019460120FFF7B6FE09B05DF804FB00B546
:101EB00089B003220023049207AACDE90232CDE9BA
:101EC00000331A4619469F20ADF81C308DF81E309D
:101ED000FFF7A0FE9DF81D309DF81C001B0243EA91
:101EE00000439DF81E00184309B05DF804FB7FB560
:101EF0000023CDE90312082200920146CDE9013307
:101F000002228820FFF73CFF07B05DF804FB7FB595
:101F1000FFF79DFF0023CDE90333CDE901330093A3
:101F20001A4619469820FFF775FE07B05DF804FBC6
:101F300010B5FFF747FFFFF7BAFF094B98420ED1E4
:101F4000FFF7E5FFFFF759FF0446FFF76BFF40F08F
:101F50000201C9B22046BDE81040FFF790BF10BD96
:101F60004326BF001D4AD2F8B03010B543F40073C9
:101F70001B4CC2F8B0302368002BFCDA194B2360ED
:101F8000194B63600223A360184BE360184B636135
:101F9000184A00236362A362A263174AC4F8B030F0
:101FA000C4F8B4204FF0C062C4F8E420C4F808318B
:101FB00040F2E313C4F80431084B0122C3F8642152
:101FC000FEF7E6FE2368064A43F001032360136828
:101FD000002BFCDABDE81040FFF7AABF00400E401E
:101FE00000C40140880001000B0010000000020244
:101FF00002100C00050001052B0019800A2310B502
:10200000040900F00F0013FB040407EE904A0809CE
:1020100001F00F0113FB0011B8EEE77A07EE901AFA
:10202000F8EEE77A9FED0A6A9FED0A0A77EEC77A23
:102030001109C6EE276A02F00F0213FB012307EE17
:10204000903AA7EE660AF8EEE77AA7EEA60A10BD68
:10205000295C8F3F7B14EE3F07B50A23020900F08D
:102060000F0013FB020207EE902A0A0901F00F018C
:1020700013FB0213B8EEE77A07EE903AF8EEE77A30
:102080009FED176A77EEC77AC6EE276ADFED157AFD
:10209000E7EE667A30EE670A80EE260A02F036F83E
:1020A000B2EE047AC0EE077AFCEEE77ACDED017A63
:1020B0009DF8043003EB8302520007EE902AF8EEFD
:1020C000E77A30EE670ABCEEC00A10EE102A02F082
:1020D0000F0040EA0310C0B203B05DF804FB00BF7C
:1020E000295C8F3F7B14EE3F154BDB6A13F0010137
:1020F00015D0144A0121117013F0040113D0124AB3
:102100000121117013F0100111D0104A012111703A
:1021100013F040020FD00E4B01221A7070479A073D
:10212000EAD5084AE7E71807ECD5074AE9E79A062F
:10213000EED5064AEBE71B06F0D5054BEDE700BFF1
:1021400000300E4078000020790000207A00002046
:102150007B000020074B4FF41052DA63064ADA6224
:10216000064B0122E021C3F8802183F800131A6096
:10217000704700BF00300E40FF37DFE300E100E0B2
:1021800012494FF00053CB624B6A9B00FCD5104BB9
:102190009FED106A1A685B6D91ED087ADBB207EE6D
:1021A000903AF8EEE77AB8EE477AC7EE866AC2F35D
:1021B000074337EEC77A00EE103ADFED077AB8EE44
:1021C000C00A76EEA77AA7EE270A704700300E40C5
:1021D000B081E00F0000C84204568E3E2DE9F8435E
:1021E00089462DED028B9046B0EE608A70B9234B84
:1021F000D3F8902022F00102C3F890201A6B22F04D
:1022000003021A63BDEC028BBDE8F8831C4BD3F8C4
:102210004051D3F84061EDB2C6F307263146284657
:10222000FFF71AFFB0EE480A074631462846FFF787
:1022300013FF0446B9F1000F06D03A46314628464E
:10224000FFF7DCFE89ED000AB8F1000F06D0224648
:1022500031462846FFF7D2FE88ED000A074B0322DD
:10226000DA621A6B240444EA072442F0030244F0C1
:1022700001041A63C3F89040C4E700BF00300E4069
:10228000B081E00FF8B50F4658B9174BD3F8982036
:1022900022F00102C3F898201A6B22F030021A6370
:1022A000F8BD124BD3F84451D3F84461EDB2C6F3F4
:1022B000072631462846FFF7CFFE044637B10246CF
:1022C00031462846FFF79AFE87ED000A064B30227A
:1022D000DA621A6B240242F0300244F001041A63FD
:1022E000C3F89840DCE700BF00300E40B081E00F3B
:1022F000F8B50F4658B9174BD3F89C2022F00102CD
:10230000C3F89C201A6B22F0C0021A63F8BD124B6E
:10231000D3F84451D3F84461C5F30745360E31462E
:102320002846FFF799FE044637B102463146284653
:10233000FFF764FE87ED000A064BC022DA621A6BD3
:10234000240242F0C00244F001041A63C3F89C4026
:10235000DCE700BF00300E40B081E00F70B5A24C4A
:10236000E26CC2F30742102A86B000F0CC80112A3A
:1023700000F0CB80122A00F0CA80132A00F0C98036
:10238000142A00F0C880152A00F0C780192A00F02E
:10239000C6801A2A00F0C5801B2A00F0C4801C2ABF
:1023A00000F0C3801D2A00F0C2801E2A00F0C18008
:1023B0001F2A00F0C080202A00F0BF80212A00F0F0
:1023C000BE80252A00F0BD80262A00F0BC80272A86
:1023D00000F0BB80282A00F0BA80292A00F0B980DA
:1023E0002A2A00F0B8802B2A00F0B7802C2A00F0AF
:1023F000B6802D2A00F0B5802E2A00F0B480312A54
:1024000000F0B380322A00F0B280332A00F0B180AD
:10241000342A00F0B080352A00F0AF80362A00F070
:10242000AE80372A00F0AD80382A00F0AC80392A1F
:1024300000F0AB803A2A00F0AA803D2A00F0A98083
:102440003E2A00F0A8803F2A00F0A780472A00F02B
:10245000A680482A00F0A580492A00F0A4804A2AD4
:1024600000F0A3804B2A00F0A2804C2A00F0A1804B
:102470004D2A00F0A080512A00F09F80532A00F0DE
:102480009E80552A00F09D80572A00F09C80642A87
:1024900000F09B80672A00F09A806A2A00F09980F9
:1024A000782A00F09880792A00F097804F4D504BA1
:1024B0007A2A18BF2B46626BC2F307224A2A00F021
:1024C0008E804C2A05D04D2A03D0512A14BF3F22BA
:1024D0005122656B15F0FF0500F08380012D0CBFC4
:1024E00049263F26E56C646B0296C4F30744CDE9A8
:1024F0000324ADB24FF40062019200953D4A01F011
:10250000F1FD06B070BD3C4BD5E73C4BD3E73C4BEF
:10251000D1E73C4BCFE73C4BCDE73C4BCBE73C4BCB
:10252000C9E73C4BC7E73C4BC5E73C4BC3E73C4BDB
:10253000C1E73C4BBFE73C4BBDE73C4BBBE73C4BEB
:10254000B9E73C4BB7E73C4BB5E73C4BB3E73C4BFB
:10255000B1E73C4BAFE73C4BADE73C4BABE73C4B0B
:10256000A9E73C4BA7E73C4BA5E73C4BA3E73C4B1B
:10257000A1E73C4B9FE73C4B9DE73C4B9BE73C4B2B
:1025800099E73C4B97E73C4B95E73C4B93E73C4B3B
:1025900091E73C4B8FE73C4B8DE73C4B8BE73C4B4B
:1025A00089E73C4B87E73C4B85E73C4B83E73C4B5B
:1025B00081E73C4B7FE73C4B7DE73C4B7BE73C4B6B
:1025C00079E73C4B77E73C4B75E73C4B73E73C4B7B
:1025D00071E73C4B6FE73C4B6DE73C4B6BE73F22B1
:1025E00077E747267EE700BFB081E00F0046000096
:1025F0001148000019480000024600000C46000087
:1026000016460000204600002A460000344600001E
:102610003E46000048460000524600005C4600006E
:1026200067460000724600007D46000088460000B4
:10263000934600009E460000A9460000B4460000F4
:10264000BF460000CA460000D5460000E046000034
:10265000EB460000F6460000014700000C47000072
:1026600017470000224700002D47000038470000B0
:10267000434700004E4700005947000064470000F0
:102680006F4700007A470000854700009847000028
:10269000AB470000BD470000D0470000DE47000008
:1026A000F1470000044800001648000007480000F9
:1026B000F6450000F9470000E6470000D347000058
:1026C000C5470000B2470000A34700009047000044
:1026D00070B52DED048B8CB0FFF73CFDD24D8721FA
:1026E0004FF40070FEF7D8FE87210620FEF712FF98
:1026F000FEF7B8FDD5F88812CC4A0120FEF77CFE23
:10270000CB4AD5F80C110120FEF7A2FEFEF740FBE4
:10271000FEF7B8FFC7490320FEF7BCFFFFF71AFA20
:1027200000F0DAFDC44AD2F8B03043F02003C2F81A
:10273000B030C24B04225A6000244FF47F029C60E8
:102740005C639C635A66BE4A9C66C3F89440C3F8B7
:102750009820BC4AC3F8C440C3F8C840C3F8F4206A
:10276000C3F8F840D3F8402422F00C02C3F8402408
:10277000D3F8402442F01002C3F84024C3F8444484
:1027800000F066FDFEF7CCFFFEF768FF00F062FE8A
:10279000FFF7E8FBDFEDAC0A9FEDAC0A6A4601A942
:1027A0000120FFF71BFD02A9B0EE040A0120FFF78C
:1027B00069FD9FEDA70A03A90120FFF799FDDFED51
:1027C000A57ADDED029A9DED039A2246214601206D
:1027D00079EEA79A39EE279A00F0AAFD04A82021E5
:1027E000FFF7BCFD04AA9C499C4801F067FC9C498A
:1027F0009C480B698A69C9691B02C1F3031103F480
:102800007C530B4302F0F0021A43934901F056FC4B
:102810002A6891499448C2F3074201F04FFC4FF4F3
:1028200000628D49914801F049FC4FF400728A49D9
:102830008F4801F043FC012001F098FCEFF308867B
:10284000361A01F09BFC324683498A48DFED8A8ABA
:102850009FED8A8A8A4E01F031FC6A6C7E492B6CAE
:102860008848894D01F02AFC0022884B7A49884823
:1028700001F024FC874BD3ED007AF8EE677AC7EEBF
:10288000A87A17EE900AFDF7C7FD02460B4682486C
:10289000714901F013FC814BD3ED007AF8EE677AB1
:1028A000C7EEA87A17EE900AFDF7B6FD02460B4672
:1028B0007B48694901F002FC7A4BD3ED007AF8EECF
:1028C000677AC7EEA87A17EE900AFDF7A5FD0246D3
:1028D0000B467548604901F0F1FB51A3D3E9002391
:1028E0005D49724801F0EAFB714BD3ED007AF8EED6
:1028F000677AC7EE887A17EE900AFDF78DFD0246DB
:102900000B466C48544901F0D9FB6B4BD3ED007A70
:10291000F8EE677AC7EE887A17EE900AFDF77CFD2D
:1029200002460B4665484C4901F0C8FB644BD3EDA9
:10293000007AF8EE677AC7EEA87A17EE900AFDF7EC
:102940006BFD02460B465F48434901F0B7FB5E4B07
:10295000D3ED007AF8EE677AC7EEA87A17EE900A00
:10296000FDF75AFD02460B4658483B4901F0A6FBCD
:10297000574BD3ED007AF8EE677AC7EEA87A17EED8
:10298000900AFDF749FD02460B465248324901F0D4
:1029900095FB514BD3ED007AF8EE677AC7EEA87A33
:1029A00017EE900AFDF738FD02460B464B482A49C0
:1029B00001F084FB4A4BD3ED007AF8EE677AC7EE5C
:1029C000A87A17EE900AFDF727FD02460B46454808
:1029D000214901F073FB444BD3ED007AF8EE677A9E
:1029E000C7EEA87A17EE900AFDF716FD02460B46D1
:1029F0003E48194901F062FB3D4BD3ED007AF8EEF9
:102A0000677AC7EEA87A17EE900AFDF705FD024631
:102A10000B463848104901F051FB6DE0AFF30080E0
:102A2000000000E04D624040B081E00F80F0FA020B
:102A30000048E80180841E0000400E4000800840ED
:102A400040440400000400447B144E406666464047
:102A50009A994940F4FDD43CEC450000324800000E
:102A6000D0FF0FE046480000674800009048000093
:102A7000AC480000C64800000024744900007A44B5
:102A80002B480000DF4800002F48000000002040D5
:102A9000FD48000004000020224900001000002032
:102AA00048490000000000207049000099490000DA
:102AB00008000020BE4900000C000020E44900008E
:102AC000CC0000200B4A0000F4000020314A000036
:102AD000D0000020544A0000B80000207A4A0000CC
:102AE000DC000020A14A0000EC000020C74A0000E2
:102AF000E0000020ED4A0000D74BD3ED007AF8EE5D
:102B0000677AC7EEA87A17EE900AFDF785FC0246B1
:102B10000B46D248D24901F0D1FAD24BD3ED007A1C
:102B2000F8EE677AC7EEA87A17EE900AFDF774FC04
:102B300002460B46CC48CA4901F0C0FACB4BD3ED54
:102B4000007AF8EE677AC7EEA87A17EE900AFDF7DA
:102B500063FC02460B46C648C14901F0AFFAC54BBB
:102B6000D3ED007AF8EE677AC7EEA87A17EE900AEE
:102B7000FDF752FC02460B46BF48B94901F09EFAE8
:102B8000BE4BD3ED007AF8EE677AC7EEA87A17EE5F
:102B9000900AFDF741FC02460B46B948B04901F0E6
:102BA0008DFAB84BD3ED007AF8EE677AC7EEA87AC3
:102BB00017EE900AFDF730FC02460B46B248A849D2
:102BC00001F07CFAB14BD3ED007AF8EE677AC7EEEC
:102BD000A87A17EE900AFDF71FFC02460B46AC4898
:102BE0009F4901F06BFAAB4BD3ED007AF8EE677AB0
:102BF000C7EEA87A17EE900AFDF70EFC02460B46C8
:102C0000A548974901F05AFAA44BD3ED007AF8EEA3
:102C1000677AC7EEA87A17EE900AFDF7FDFB024629
:102C20000B469F488E4901F049FA9E4BD3ED007A3E
:102C3000F8EE677AC7EE887A17EE900AFDF7ECFB9C
:102C400002460B469848864901F038FA974BD3ED77
:102C5000007AF8EE677AC7EE887A17EE900AFDF7E9
:102C6000DBFB02460B4692487D4901F027FA914B67
:102C7000D3ED007AF8EE677AC7EE887A17EE900AFD
:102C8000FDF7CAFB02460B468B48754901F016FA60
:102C90008A4BD3ED007AF8EE677AC7EE887A17EEA2
:102CA000900AFDF7B9FB02460B4685486C4901F0D6
:102CB00005FA844BD3ED007AF8EE677AC7EE887A8E
:102CC00017EE900AFDF7A8FB02460B467E486449C2
:102CD00001F0F4F97D4BD3ED007AF8EE677AC7EE98
:102CE000887A17EE900AFDF797FB02460B46784864
:102CF0005B4901F0E3F9774BD3ED007AF8EE677AA0
:102D0000C7EE887A17EE900AFDF786FB02460B465F
:102D10007148534901F0D2F9704BD3ED007AF8EEC7
:102D2000677AC7EE887A17EE900AFDF775FB0246C0
:102D30000B466B484A4901F0C1F96A4BD3ED007A62
:102D4000F8EE677AC7EE887A17EE900AFDF764FB13
:102D500002460B466448424901F0B0F9634BD3ED9B
:102D6000007AF8EE677AC7EE887A17EE900AFDF7D8
:102D700053FB02460B465E48394901F09FF95D4B13
:102D8000D3ED007AF8EE677AC7EE887A17EE900AEC
:102D9000FDF742FB02460B465748314901F08EF9D8
:102DA000564BD3ED007AF8EE677AC7EE887A17EEC5
:102DB000900AFDF731FB02460B465148284901F0C5
:102DC0007DF9504BD3ED007AF8EE677AC7EE887A3A
:102DD00017EE900AFDF720FB02460B464A482049B1
:102DE00001F06CF9494BD3ED007AF8EE677AC7EE43
:102DF000887A17EE900AFDF70FFB02460B4644480F
:102E0000174901F05BF9DDED017A67EE887A17EE7C
:102E1000900AFDF701FB02460B463E48104901F0BF
:102E20004DF9DDED007A67EE887A17EE900AFDF72E
:102E3000F3FA02460B463848094901F03FF900F021
:102E400025FB10EE100AFDF7E7FA02460B46334861
:102E5000034901F033F963E0D8000020144B00006F
:102E6000EC450000A40000203B4B0000D4000020F3
:102E7000604B0000F0000020854B0000980000200F
:102E8000AA4B0000B0000020CE4B0000BC00002088
:102E9000F34B000008010020184C0000E80000205F
:102EA0003C4C0000A0000020604C0000F800002016
:102EB000844C0000FC000020AC4C0000000100200D
:102EC000D04C000094000020F44C0000AC00002026
:102ED0001D4D0000B4000020464D000004010020FC
:102EE0006A4D0000C4000020924D0000A8000020A0
:102EF000BA4D00009C000020E24D0000E4000020DC
:102F0000074E0000C80000202B4E0000C00000202B
:102F10004F4E0000744E0000A14E0000CE4E000047
:102F20003F4B40491A784048A24214BF32462A46D5
:102F300001F0C4F8DDED027A67EE887A17EE900AA8
:102F4000FDF76AFA02460B463848364901F0B6F8F2
:102F500069EE887A17EE900AFDF75EFA02460B4694
:102F60003348304901F0AAF800F0D4FA10EE100A04
:102F7000FDF752FA02460B462E482A4901F09EF808
:102F80002D4B28491A782D48A24214BF32462A46B2
:102F900001F094F8DDED037A67EE887A17EE900A77
:102FA000FDF73AFA02460B4625481E4901F086F81D
:102FB00069EE087A17EE900AFDF72EFA02460B46E4
:102FC0002048184901F07AF81F4B16491A781F4813
:102FD000A24214BF32462A4601F070F800F0DEFA31
:102FE00010EE100AFDF718FA02460B4618480D4974
:102FF00001F064F800F016FB10EE100AFDF70CFA71
:1030000002460B461348074901F058F80549124893
:1030100001F054F820460CB0BDEC048B70BD00BF2D
:1030200078000020EC450000F34E0000124F000035
:103030003F4F00006C4F00007A000020914F0000CD
:10304000B04F0000DE4F00007B0000200C5000005D
:103050002C500000525000007750000080B588B01E
:10306000FEF725FF6549664D644C664F024666488B
:1030700001F024F8082206A90020FEF738FF9DF889
:103080001F3005939DF81E3004939DF81D30039367
:103090009DF81C3002939DF81B3001939DF81A3067
:1030A00000939DF818209DF819305449574801F0B5
:1030B00005F84FF0404351491A78554800F0FEFF9B
:1030C000544B4E491A78524800F0F8FF524B4B4986
:1030D0001A784F4800F0F2FF504B48491A784C4894
:1030E00000F0ECFF4E4B45491A784E4800F0E6FFE1
:1030F0004FF07E6341491A784B4800F0DFFFEB68E0
:1031000083F00103EB604FF4FA70002100F0FCF84B
:1031100000F0CCFA10EE100AFDF77EF902460B46DD
:103120003846214600F0CAFFFFF72AF810EE100AD1
:10313000FDF772F902460B463C48214600F0BEFFFF
:10314000FEF7D2F910EE100AFDF766F902460B46BB
:103150003748214600F0B2FFFEF7B4F910EE100A2E
:10316000FDF75AF902460B463248214600F0A6FF09
:10317000FEF7F8F910EE100AFDF74EF902460B467D
:103180002D48214600F09AFFFEF7DAF910EE100AFA
:10319000FDF742F90B4602462146284800F08EFF13
:1031A000FEF72EFA0646FEF739FA10EE100AFDF782
:1031B00033F93246CDE900012146214800F07EFF77
:1031C0000120FEF7E5F906460020FEF7F7F910EEBC
:1031D000100AFDF721F93246CDE9000121461948D0
:1031E00000F06CFF00F066F821460246164800F039
:1031F00065FF2146154800F061FF80E7F1450000BA
:10320000008008402C51000096500000B350000090
:10321000E7500000010000C0020000C0030000C031
:103220000000E10FFE500000155100004451000065
:103230005C5100007B5100009A510000B851000021
:10324000D6510000F85100001A520000325200001E
:1032500008B5164BD3F8B02042F00102C3F8B020F5
:10326000D3F8302122F00302C3F83021D3F8F02044
:1032700042F00102C3F8F020FDF78AFD0C4B49F241
:1032800014021A6000225A609A6040F2E7325A64CF
:1032900002221A6540F2FF721A625A6A42F0040270
:1032A0005A621A6842F001021A6008BD00400E40DE
:1032B00000200640014B9868704700BF0020064080
:1032C000044930B5D1E90023541C43F10005C1E99C
:1032D000004530BD80000020084B4FF47A721B6817
:1032E000B3FBF2F3064A013B5360002393600723CC
:1032F0001360044BE02283F823207047B8000020BD
:1033000010E000E000ED00E0084B2DE9F043D3E9C8
:103310000045D3E90089B8EB040669EB05078F4245
:1033200008BF8642F5D3BDE8F08300BF80000020CF
:10333000082910B525D8082A23D8174CD4F8C0304E
:1033400043F48023C4F8C030144B00241C6042EACC
:10335000012203245C649A64A0B9114A11491268DD
:10336000B2FBF1F2083AE240013A1A611A6842F0FF
:1033700001021A605A6842F020025A609A68D20725
:10338000FCD410BD0128F1D1054A07491268B2FBEF
:10339000F1F2083AD208E7E700400E4000940840F6
:1033A000D8000020A0860100801A0600FEE77047C2
:1033B00008B51D4A1D4B1E498B4227D31D4B1E4A83
:1033C0001E498B4227D31E4B1E4A0021934227D30E
:1033D000FFF7EDFF1C4B1D4A9A601D4ADA604FF45F
:1033E000E0225A621A6942F010021A615A6942F0E8
:1033F00010025A61D3F8882042F47002C3F8882082
:10340000FFF766F9FFF72AFE72B6FEE752F8040BE3
:1034100043F8040BD0E752F8040B43F8040BD0E751
:1034200043F8041BD2E700BFC052000000000010A8
:103430000000001000000020C052000078000020B2
:10344000780000201C01002000ED00E000000000DA
:103450000005FA050A4BD3F8C02042F48012C3F8E5
:10346000C020D3F8C02042F40012C3F8C020054A9F
:10347000C3F85C21A3F5C423034A1A60FDF788BC96
:1034800000400E4027012701C00900831B4BDA686A
:1034900012F4985FFBD11A4A1A614FF480425A61C4
:1034A0005A6B22F4FF4222F07F025A63154A526E91
:1034B000596BC2F30E420A435A631A6B124922F047
:1034C0000F021A631A6B22F00F020A639A6842F025
:1034D00001029A60094B9A6BD207FCD59B6C9FED59
:1034E0000B0A1B0907EE903AF8EEE77A67EE807A4E
:1034F0009FED070A27EE800A704700BF00200840B2
:1035000078E0FF07B081E00F0024084000409C45B0
:10351000000080391B4BDA6812F4985FFBD11A4A1D
:103520001A614FF480425A615A6B22F4FF4222F032
:103530007F025A63154A526E596BC2F30E420A4318
:103540005A631A6B124922F00F021A631A6B22F0A7
:103550000F020A639A6842F001029A60094B9A6B63
:10356000D207FCD59B6C9FED0B0A1B0907EE903A26
:10357000F8EEE77A67EE807A9FED070A27EE800A79
:10358000704700BF0020084078E2FF07B081E00FDD
:103590000024084000409C45000080391B4BDA683D
:1035A00012F4985FFBD11A4A1A614FF480425A61B3
:1035B0005A6B22F4FF4222F07F025A63154A526E80
:1035C000596BC2F30E420A435A631A6B124922F036
:1035D0000F021A631A6B22F00F020A639A6842F014
:1035E00001029A60094B9A6BD207FCD59B6C9FED48
:1035F0000B0A1B0907EE903AF8EEE77A67EE807A3D
:103600009FED070A27EE800A704700BF00200840A0
:1036100078E5FF07B081E00F0024084000409C459A
:10362000000080391B4BDA6812F4985FFBD11A4A0C
:103630001A614FF480425A615A6B22F4FF4222F021
:103640007F025A63154A126E596BC2F30E420A4347
:103650005A631A6B124922F00F021A631A6B22F096
:103660000F020A639A6842F001029A60094B9A6B52
:10367000D207FCD59B6C9FED0B0A1B0907EE903A15
:10368000F8EEE77A67EE807A9FED070A27EE800A68
:10369000704700BF0020084038E4FF07B081E00F0A
:1036A0000024084000401C450000803910B5264B1E
:1036B000DA6812F4985FFBD1244A1A614FF4804211
:1036C0005A615A6B224C22F4FF4222F07F025A6365
:1036D000204A116E586BC1F30E0101435963186BF8
:1036E000204040F480301863196B1B48214041F49E
:1036F00080310163996841F0010199601346124AD3
:10370000916BC907FCD5916C1A68DB6EDFED136A0B
:10371000C3F30B1307EE903A0B09B8EEE77A07EE06
:10372000903AF8EEE77AC2F3074377EE677A9FEDB7
:103730000C7A67EE877A00EE103A87EEA67AB8EE3A
:10374000C00A37EE000A10BD0020084018F3FF0938
:10375000F0FFFEFFB081E00F002408401F85EB451D
:1037600000409C449A4238BF8854704770472DE906
:10377000F74F9B46DDE91173814613F002008A463C
:103780001646DDE90C549DF838C00190DDE90F21A3
:103790004FF0300E44D003F0030001284FF0300EFC
:1037A00046D013F0100F18D0A14201D0A74244D147
:1037B000002C79D0102A04F1FF3147D1002941D0E3
:1037C000023C990673D41F2C73D878222A550134F1
:1037D0001F2C6ED830222A550134BC4206D1BCF1D0
:1037E000000F02D113F00C0F57D07C1E1F2C05D8F0
:1037F000BCF1000F54D02D232B550134C0B3254408
:103800004FF00008444506EB080235D1019B002B20
:1038100040D1104603B0BDE8F08F05F804E0013454
:10382000A142B8D9202CF8D1B5E705F804E001345D
:10383000A742B6D9202CF8D1B3E7102AC1D01F2C4B
:10384000DCD8C7E70C46BCE75822BFE70C46C1E707
:103850001B07D3D52023CFE7561C5B4651462020BB
:10386000C847324608EB02039F42F5D81646C6E722
:103870003246A4EB0608F5E75B46514615F8010D04
:10388000C84708F10108BDE7541C5B46514620209B
:10389000C8472246BA42F7D3BBE71F2F3C46ADD8F4
:1038A0005A07D5D52B23A7E7102A93D189E71F2CD8
:1038B000CAD9BC4293D0A1E72DE9F04391B0DDF81D
:1038C00074C0189D1A9F1CF4806F00D0A5B31CF023
:1038D000200F0DF1200E4FF0000614BF4FF03708F7
:1038E0004FF05708B5FBF7F907FB19595FFA89F450
:1038F000B9F1090F94BF30344444E4B2BD420EF82C
:10390000014BB5FBF7F406F1010601D3202E11D1CE
:103910001C9C05941B9CCDF818C0CDE903749DF840
:103920006440CDE9016408AC0094FFF720FF11B0BA
:10393000BDE8F0832546D5E72E46E9E72DE9F04FAF
:1039400093B09146249D6A05074688469A4603D55A
:10395000DDE91C3423433BD015F0200F14BF37237F
:1039600057230AAE00240993DDE92023DDE91C0179
:10397000FDF78CF8D2B2092A8ABF099B3032D218DF
:10398000D2B2DDE920BC06F8012BDDE91C2363453A
:1039900008BF5A4504F1010401D3202C15D1239B03
:1039A0000593229B0493209B03939DF87830069502
:1039B000CDE901430AAB00934A4653464146384697
:1039C000FFF7D5FE13B0BDE8F08FCDE91C01CBE7C2
:1039D0000024E4E708B1FDF7A0BE70470000000036
:1039E0002DE9F04F9FB09A460B1E0C93DDF8A0B066
:1039F000B54B18BF034691460B9300244AE3252894
:103A00000AF1010A07D0651C22464B46DDE90B414D
:103A1000A0472C463EE3002506E02D2B16D0302B88
:103A20000CD145F001059246524612F8013B2B2B72
:103A30000FD0F2D8202B0FD0232B10D0A3F13001C0
:103A400009292ED800230D930A2011E045F0020524
:103A5000E9E745F00405E6E745F00805E3E745F04A
:103A60001005E0E70D9900FB0133303B0D939246C2
:103A7000524612F8013BA3F130010929F2D99AF814
:103A800000302E2B48D19AF80120A2F130010929EB
:103A90000AF1010345F4806536D89A4600260A21CA
:103AA00013E02A2B09D15BF8043B002BBCBF5B421F
:103AB00045F002050D939246E1E700230D93DEE702
:103AC00001FB0602A2F130069A46534613F8010B99
:103AD000A0F13002092AF3D9534613F8012B6C2ABE
:103AE00023D01BD8682A29D06A2A31D053469A4657
:103AF0001AF8010B662836D000F2C48058282AD163
:103B000045F020051023C7E02A2A04D15BF8046B96
:103B10000AF1020AE0E79A460026DDE7742A01D09E
:103B20007A2AE3D145F48075E1E79AF801206C2AFE
:103B3000F8D145F440750AF10203D8E79AF801205C
:103B4000682A02D045F08005D1E745F0C005F2E7CC
:103B500045F40075CBE700F2868025283FF453AF8B
:103B600046287FF450AF0BF1070B2BF0070BBBEC93
:103B7000027B0022002351EC170B8DED0E7BFCF72E
:103B800015FF002800F00B81DDE90E230020002145
:103B9000FCF7E2FACDE90E01012311936A0540F129
:103BA0000081092E28BF09261096DDE90E01FCF7D9
:103BB00025FF109A454B03EBC20393ED007B0646AD
:103BC0008DED127BFCF716FC02460B46DDE90E017B
:103BD000FCF7C2FADDE91223FCF776FCCDE914010B
:103BE000FCF734FF0746FCF7F5FB02460B46DDE920
:103BF0001401FCF7B1FA0022354BCDE91401FCF7B2
:103C0000F3FE002800F0D08001373846FCF7E2FBD5
:103C100002460B46DDE91201FCF7D2FE08B101367F
:103C2000002727A3D3E90023DDE90E01FCF7DCFE22
:103C300000287FF4E2AE109B002B40F0D480304689
:103C4000FCF7D8FB02460B46DDE90E01FCF784FACF
:103C500000221F4B07468846FCF7C6FE002800F0EE
:103C6000B2800136B9E0632800F06081642802D098
:103C700062287FF4C8AE622825F0100540F0DA8192
:103C8000022309E0702800F0B28123D86928F2D01D
:103C90006F287FF4B8AE082315F4007225F00C01EC
:103CA0005DD00D9A0891CDE906620022CDE904327B
:103CB0000BF1070B2BF007070292F7E80223DFE175
:103CC0000000C0FFFFFFDF416D37000068520000B9
:103CD0000000E03F7528CED078283FF413AF73285A
:103CE0007FF491AE5BF8047B3B469846013398F82D
:103CF0000020002AF9D115F48063A8EB070810937F
:103D000002D0B04528BFB04615F002030E9300F074
:103D100047812246D41B4BE1E8050BF1040713D57C
:103D2000DBF800300D990292CDE90361DA0F002B28
:103D300005950192B8BF5B4200934B462246DDE9F0
:103D40000B01FFF7B9FDA3E115F0400FDBF80030E0
:103D500001D0DBB2E6E7290648BF1BB2E2E7E8057F
:103D60000BF1040708D505910D99CDE90123CDE9A3
:103D70000361DBF80030DFE715F0400FDBF80020CF
:103D800009D0D2B205910D9902930023CDE90361C8
:103D9000CDE90023D1E7280648BF92B2F2E711909F
:103DA000FCE60623109300E70022A14BDDE9140195
:103DB000FCF7F2FD00283FF434AF17B1FB077FF5A5
:103DC00030AF01372DE70022994B38464146FCF7CA
:103DD000E3FD10B1F7073FF544AF109A16AB13445B
:103DE00090460A225CE016AA4FF001080A20B7FBB1
:103DF000F0F100FB11733033B8F1200F02F8013BF2
:103E00001DD0092F08F1010311D8434616AA30210D
:103E10001098834208F101080CD1109BCDF8408026
:103E20001EAA13441A462E2302F8203CD5E79846D2
:103E30000F46DCE7B8F11F0F99544346E8D905F067
:103E40000303012B16AA4FF0300131D00D9A904593
:103E500007D1119A1AB915F00C0F00F0DD8008F1A6
:103E6000FF38B8F11F0F0AD8119A002A00F0D88045
:103E70001EAA42442D2102F8201C08F10108EBB9CA
:103E80002246A8EB04062BE096FBF2F102FB11663A
:103E9000303603F8016B08F101080E460029CED038
:103EA000B8F1200FF0D1CAE708F8021008F10108B4
:103EB0000D988045CAD2B8F11F0FF5D916AB43440F
:103EC0001093002719E02807D9D51EAA42442021C3
:103ED000D1E7571C4B460C990B9C2020A0473A4633
:103EE0000D99B3189942F4D81446E7E710980C9945
:103EF00000780B9E4B46B0470137109B474503F1B6
:103F0000FF3307EB04021093F0D1A907144640F1E8
:103F1000C1800D9BA34240F2BD80651C22464B46EA
:103F20000B9C0C992020A0472C46F2E715F00205C7
:103F300026D0224601275BF8040B0C990B9E4B46BA
:103F4000C0B2541CB047002D00F0A4800D9BBB42B2
:103F500040F2A080651C22464B460B9C0C99202009
:103F6000A04701372C46F1E74B460C990B9F2020C8
:103F7000B8470D9B3219B71C0136B342F4D8DAE7C3
:103F80002E46F6E74B460C990B9D2020A84743464A
:103F90000D99994204EB030203F10108F2D8B9E646
:103FA0004346E41AF4E71E464B46DDE90B51A847A9
:103FB000E21917F8010B28B1109B002BF4D0731EE7
:103FC000002EF0D10E9B1446002B63D0A8EB020804
:103FD00007E0651C22464B460B9C0C992020A0470D
:103FE0002C460D9A08EB04039342F2D352E00823C7
:103FF000CDE9036310220023CDE9013245F021050C
:1040000005955BF8043B009322464B46DDE90B0126
:10401000FFF752FC04463DE0B8F11F0F3FF62FAF0B
:104020006E077FF550AF1EAA42442B2123E700BF45
:104030000000E03F69284FF00A0203D064281346CD
:104040007FF42AAEAF057FF567AE0BF1070B2BF0BF
:10405000070B0D9BDBF804105F4657F8080B049222
:10406000CDE9066300230593CB0F029300280B468E
:1040700073F100010895024602DA424263EB430302
:10408000CDE90023DDE90B014B462246FFF756FC44
:104090000446BB469AF8000000287FF4B0AC4C45BB
:1040A0002CBF09F1FF3222464B460C990B9D002094
:1040B000A84720461FB0BDE8F08F00BF0FB41FB562
:1040C00006AA02A952F8043B0392009204484FF05A
:1040D000FF32FFF785FC05B05DF804EB04B07047D4
:1040E000D53900000CB41FB506AA52F8043B039260
:1040F00000920A4601460448FFF772FC05B05DF8DD
:1041000004EB02B0704700BF6537000082B08DED50
:10411000010A0199C1F3C753A3F17F02162A16DCE5
:10412000002A0DDB10481041084212D04FF48003E2
:1041300013410B4423EA000300EE103A02B070472B
:10414000013201F00043F7D143F07E53F4E7802AB7
:1041500003D09DED010A02B07047DDED017A37EE24
:10416000A70A02B0704700BFFFFF7F00024B014665
:10417000186800F059B800BF14000020024B014637
:10418000186800F003B800BF1400002038B50546D9
:10419000002945D051F8043C0C1F002BB8BFE4188F
:1041A00000F0ACF81F4A1368104633B9636014601E
:1041B0002846BDE8384000F0A7B8A3420CD92168D2
:1041C0006218934204BF1A685B68636004BF5218A8
:1041D00022600460ECE713465A680AB1A242FAD999
:1041E00019685818A0420BD120680144581882421F
:1041F0001960DDD1106852685A6001441960D7E730
:1042000002D90C232B60D3E7206821188A4204BF0F
:1042100011685268626004BF091821605C60C7E7DA
:1042200038BD00BF88000020F8B5CD1C25F003057F
:1042300008350C2D38BF0C25002D064601DBA942A0
:1042400003D90C2333600020F8BD00F057F8214952
:104250000A6814469CB9204F3B6823B92146304672
:1042600000F03CF838602946304600F037F8431C2F
:1042700023D10C233360304600F046F8E3E723688F
:104280005B1B17D40B2B03D923601C44256004E06F
:104290006368A2420CBF0B605360304600F034F8F4
:1042A00004F10B00231D20F00700C21ACCD01B1A0A
:1042B000A350C9E722466468CCE7C41C24F0030479
:1042C000A042E3D0211A304600F008F80130DDD1D9
:1042D000CFE700BF880000208C00002038B5064CD6
:1042E000002305460846236000F016F8431C02D15F
:1042F000236803B12B6038BD0C010020014800F099
:1043000009B800BF14010020014800F004B800BF44
:104310001401002070477047044A05491368002BB8
:1043200008BF0B46184410601846704790000020E4
:104330001C010020686172646661756C745F747240
:104340006163655F737461636B006D656D6D616E54
:104350006167655F74726163655F737461636B004D
:104360006275736661756C745F74726163655F73A7
:104370007461636B0075736167656661756C745F0A
:1043800074726163655F737461636B005B25735D59
:10439000202D20427573206661756C742120537442
:1043A00061636B2074726163653A0D0A005B25736B
:1043B0005D202D2042465352205B30782530325804
:1043C0005D0D0A005B25735D202D20424641522081
:1043D0005B3078253038585D0D0A005B25735D2011
:1043E0002D2048617264206661756C7421205374BD
:1043F00061636B2074726163653A0D0A005B25731B
:104400005D202D205230205B3078253038585D0DEE
:104410000A005B25735D202D205231205B3078250A
:104420003038585D0D0A005B25735D202D20523217
:10443000205B3078253038585D0D0A005B25735DB0
:10444000202D205233205B3078253038585D0D0AFE
:10445000005B25735D202D20523132205B307825A2
:104460003038585D0D0A005B25735D202D204C52BD
:10447000205B5231345D205B3078253038585D2028
:1044800063616C6C2072657475726E0D0A005B2539
:10449000735D202D205043205B5231355D205B3011
:1044A00078253038585D2070726F6772616D2063B7
:1044B0006F756E7465720D0A005B25735D202D208B
:1044C000505352205B3078253038585D2070726F21
:1044D0006772616D207374617475732072656769AA
:1044E000737465720D0A005B25735D202D202D2DE0
:1044F0002D2D2D2D2D2D2D2D2D2D2D2D2D2D2D2DEC
:104500002D2D2D2D2D2D2D2D2D2D2D2D0D0A005B1D
:1045100025735D202D2048465352205B307825308E
:1045200038585D0D0A005B25735D202D20494353EB
:1045300052205B3078253038585D0D0A005B2573BA
:104540005D202D204D5350205B3078253038585D4C
:104550000D0A005B25735D202D204D656D6F72790E
:10456000206D616E6167656D656E74206661756C46
:10457000742120537461636B2074726163653A0D1A
:104580000A005B25735D202D204D4D465352205B64
:104590003078253032585D0D0A005B25735D202D83
:1045A000204D4D464152205B3078253038585D0D06
:1045B0000A005B25735D202D2055736167652066B9
:1045C00061756C742120537461636B207472616334
:1045D000653A0D0A005B25735D202D205546535228
:1045E000205B3078253034585D0D0A00696E69749F
:1045F000006D61696E0045464D33324A47314200D5
:104600003F0045465233324D473150004546523304
:10461000324D4731420045465233324D4731560004
:1046200045465233324247315000454652333242BA
:1046300047314200454652333242473156004546E3
:1046400052333246473150004546523332464731A5
:1046500042004546523332464731560045465233B2
:10466000324D473132500045465233324D47313298
:10467000420045465233324D47313256004546528C
:10468000333242473132500045465233324247318D
:104690003242004546523332424731325600454697
:1046A0005233324647313250004546523332464744
:1046B0003132420045465233324647313256004588
:1046C000465233324D473133500045465233324D16
:1046D000473133420045465233324D47313356005D
:1046E0004546523332424731335000454652333209
:1046F0004247313342004546523332424731335606
:104700000045465233325A47313350004546523302
:1047100032464731335000454652333246473133F3
:1047200042004546523332464731335600454652E1
:1047300033324D473134500045465233324D4731C4
:1047400034420045465233324D47313456004546D7
:104750005233324247313450004546523332424799
:1047600031344200454652333242473134560045D7
:10477000465233325A47313450004546523332465E
:1047800047313450004546523332464731344200B7
:10479000455A523332574700454652333246473125
:1047A000345600455A5233324C470045464D333259
:1047B000470045464D333247473132420045464D6A
:1047C000333247470045464D33325447313142007A
:1047D00054470045464D3332474731314200454644
:1047E0004D33324C470045464D33324A4731324211
:1047F0000045464D333257470045464D333250470A
:10480000313242005A470045464D3332504731421B
:1048100000455A52333248470025732568754625AE
:1048200068752563256325686875004C4F57004FF0
:104830004B005B25735D202D204465766963653AE6
:104840002025730D0A005B25735D202D20446576BD
:10485000696365205265766973696F6E3A203078B6
:10486000253034580D0A005B25735D202D204361EF
:104870006C6962726174696F6E2074656D706572C7
:1048800061747572653A202568687520430D0A00C9
:104890005B25735D202D20466C6173682053697A17
:1048A000653A20256875206B420D0A005B25735D13
:1048B000202D2052414D2053697A653A2025687594
:1048C000206B420D0A005B25735D202D204672652A
:1048D000652052414D3A20256C7520420D0A005B3F
:1048E00025735D202D20556E697175652049443A08
:1048F00020253038582D253038580D0A005B257397
:104900005D202D20434D55202D204846584F2043F3
:104910006C6F636B3A20252E3166204D487A210D4D
:104920000A005B25735D202D20434D55202D204826
:104930004652434F20436C6F636B3A20252E3166FD
:10494000204D487A210D0A005B25735D202D204300
:104950004D55202D205553484652434F20436C6FF0
:10496000636B3A20252E3166204D487A210D0A00CE
:104970005B25735D202D20434D55202D204155583A
:10498000484652434F20436C6F636B3A20252E31CB
:1049900066204D487A210D0A005B25735D202D208D
:1049A000434D55202D204C46584F20436C6F636B70
:1049B0003A20252E3366206B487A210D0A005B25AC
:1049C000735D202D20434D55202D204C4652434FE2
:1049D00020436C6F636B3A20252E3366206B487A38
:1049E000210D0A005B25735D202D20434D55202DA0
:1049F00020554C4652434F20436C6F636B3A202541
:104A00002E3366206B487A210D0A005B25735D20EA
:104A10002D20434D55202D20484653524320436CB2
:104A20006F636B3A20252E3166204D487A210D0A9E
:104A3000005B25735D202D20434D55202D204846D9
:104A400020436C6F636B3A20252E3166204D487AE7
:104A5000210D0A005B25735D202D20434D55202D2F
:104A600020484642555320436C6F636B3A20252EF5
:104A70003166204D487A210D0A005B25735D202D9B
:104A800020434D55202D204846434F524520436C2E
:104A90006F636B3A20252E3166204D487A210D0A2E
:104AA000005B25735D202D20434D55202D20484669
:104AB00045585020436C6F636B3A20252E31662099
:104AC0004D487A210D0A005B25735D202D20434D52
:104AD00055202D20484650455220436C6F636B3A59
:104AE00020252E3166204D487A210D0A005B257362
:104AF0005D202D20434D55202D20484650455242E3
:104B000020436C6F636B3A20252E3166204D487A26
:104B1000210D0A005B25735D202D20434D55202D6E
:104B20002048465045524320436C6F636B3A202522
:104B30002E3166204D487A210D0A005B25735D20D9
:104B40002D20434D55202D2048464C4520436C6F69
:104B5000636B3A20252E3166204D487A210D0A00DC
:104B60005B25735D202D20434D55202D2051535042
:104B70004920436C6F636B3A20252E3166204D48E7
:104B80007A210D0A005B25735D202D20434D5520B1
:104B90002D205344494F20436C6F636B3A20252EE0
:104BA0003166204D487A210D0A005B25735D202D6A
:104BB00020434D55202D2055534220436C6F636B8D
:104BC0003A20252E3166204D487A210D0A005B25BA
:104BD000735D202D20434D55202D2041444330202E
:104BE000436C6F636B3A20252E3166204D487A2145
:104BF0000D0A005B25735D202D20434D55202D208F
:104C00004144433120436C6F636B3A20252E31665B
:104C1000204D487A210D0A005B25735D202D20432D
:104C20004D55202D2044424720436C6F636B3A2042
:104C3000252E3166204D487A210D0A005B25735DD3
:104C4000202D20434D55202D2041555820436C6F79
:104C5000636B3A20252E3166204D487A210D0A00DB
:104C60005B25735D202D20434D55202D204C464162
:104C700020436C6F636B3A20252E3366206B487A95
:104C8000210D0A005B25735D202D20434D55202DFD
:104C9000204C4553454E534520436C6F636B3A207F
:104CA000252E3366206B487A210D0A005B25735D43
:104CB000202D20434D55202D2052544320436C6F0E
:104CC000636B3A20252E3366206B487A210D0A004B
:104CD0005B25735D202D20434D55202D204C4344F2
:104CE00020436C6F636B3A20252E3366206B487A25
:104CF000210D0A005B25735D202D20434D55202D8D
:104D0000204C4554494D45523020436C6F636B3AFB
:104D100020252E3366206B487A210D0A005B25730F
:104D20005D202D20434D55202D204C4554494D45A7
:104D3000523120436C6F636B3A20252E3366206B13
:104D4000487A210D0A005B25735D202D20434D55C7
:104D5000202D204C464220436C6F636B3A20252E59
:104D60003366206B487A210D0A005B25735D202D88
:104D700020434D55202D204C455541525430204361
:104D80006C6F636B3A20252E3366206B487A210DB9
:104D90000A005B25735D202D20434D55202D204CAE
:104DA00045554152543120436C6F636B3A20252E98
:104DB0003366206B487A210D0A005B25735D202D38
:104DC00020434D55202D205359535449434B2043E4
:104DD0006C6F636B3A20252E3366206B487A210D69
:104DE0000A005B25735D202D20434D55202D204367
:104DF00053454E20436C6F636B3A20252E3366205B
:104E00006B487A210D0A005B25735D202D20434DF0
:104E100055202D204C464320436C6F636B3A202570
:104E20002E3366206B487A210D0A005B25735D20C6
:104E30002D20434D55202D204C464520436C6F635B
:104E40006B3A20252E3366206B487A210D0A005BD1
:104E500025735D202D20434D55202D205254434372
:104E600020436C6F636B3A20252E3366206B487AA3
:104E7000210D0A005B25735D202D20454D55202D09
:104E800020415644442046616C6C2054687265731E
:104E9000686F6C643A20252E3266206D56210D0A0B
:104EA000005B25735D202D20454D55202D2041565A
:104EB00044442052697365205468726573686F6C4E
:104EC000643A20252E3266206D56210D0A005B259E
:104ED000735D202D20454D55202D20415644442002
:104EE000566F6C746167653A20252E3266206D56C8
:104EF0000D0A005B25735D202D20454D55202D208A
:104F000041564444205374617475733A2025730DDF
:104F10000A005B25735D202D20454D55202D204432
:104F20005644442046616C6C205468726573686F07
:104F30006C643A20252E3266206D56210D0A005BE6
:104F400025735D202D20454D55202D204456444489
:104F50002052697365205468726573686F6C643A97
:104F600020252E3266206D56210D0A005B25735DCB
:104F7000202D20454D55202D204456444420566F69
:104F80006C746167653A20252E3266206D560D0AD5
:104F9000005B25735D202D20454D55202D20445666
:104FA0004444205374617475733A2025730D0A00CC
:104FB0005B25735D202D20454D55202D20494F56F2
:104FC00044442046616C6C205468726573686F6C51
:104FD000643A20252E3266206D56210D0A005B258D
:104FE000735D202D20454D55202D20494F564444BA
:104FF0002052697365205468726573686F6C643AF7
:1050000020252E3266206D56210D0A005B25735D2A
:10501000202D20454D55202D20494F5644442053E6
:1050200074617475733A2025730D0A005B25735DF6
:10503000202D20454D55202D20494F5644442056C3
:105040006F6C746167653A20252E3266206D560DAF
:105050000A005B25735D202D20454D55202D2043F2
:105060006F726520566F6C746167653A20252E3229
:1050700066206D560D0A005B25735D202D2053635D
:10508000616E6E696E67204932432062757320310C
:105090002E2E2E0D0A005B25735D202D20466C619F
:1050A000736820506172742049443A202530365884
:1050B0000D0A005B25735D202D20466C617368200E
:1050C00049443A202530325825303258253032585C
:1050D0002530325825303258253032582530325854
:1050E000253032580D0A005B25735D202D20515369
:1050F00050492052443A20253032580D0A005B2591
:10510000735D202D20426F6F742052443A20253069
:1051100032580D0A005B25735D202D2044617461B7
:105120002052443A20253032580D0A005B25735D29
:10513000202D204144432054656D703A20252E32A5
:10514000660D0A005B25735D202D20454D552054CA
:10515000656D703A20252E32660D0A005B25735D61
:10516000202D204846584F20537461727475703A50
:1051700020252E32662070460D0A005B25735D20C7
:105180002D204846584F20537461727475703A2030
:10519000252E32662075410D0A005B25735D202D9A
:1051A000204846584F205374656164793A20252E73
:1051B00032662070460D0A005B25735D202D204865
:1051C00046584F205374656164793A20252E326623
:1051D0002075410D0A005B25735D202D204846583F
:1051E0004F20504D41205B253033585D3A20252E0D
:1051F00032662075410D0A005B25735D202D204825
:1052000046584F20504441205B253033585D3A20AA
:10521000252E32662075410D0A005B25735D202D19
:1052200020525443432054696D653A20256C750D16
:105230000A005B25735D202D204269672066616747
:1052400020646F6573206E6F74206E6565642064E2
:1052500065627567207561727420616E796D6F7219
:10526000652E0D0A00000000000000000000F03F65
:105270000000000000002440000000000000594031
:105280000000000000408F40000000000088C34084
:1052900000000000006AF8400000000080842E41F9
:1052A00000000000D01263410000000084D7974145
:0852B0000000000065CDCD41B6
:0852B80004B8FF7F01000000B3
:1052C000C0EA2101C0EA210100800000E8030000DB
:1052D000006CDC021800002000000000000000004C
:1052E00000000000000000000000000000000000BE
:1052F00000000000000000000000000000000000AE
:10530000000000000000000000000000000000009D
:10531000000000000000000000000000000000008D
:10532000000000000000000000000000000000007D
:08533000000000000000000075
:04000003000033B115
:00000001FF
